:10000000FCC6000027C7000025C7000023C700006A
:1000100021C700001FC700001DC700001BC700004C
:1000200019C7000017C7000015C7000013C700005C
:1000300011C700000FC700000DC700000BC700006C
:1000400009C700000C942F4505C7000003C7000036
:1000500001C700000C94E53B0C94583C0C942C5FB9
:10006000F9C600000C94042E0C943C2EF3C600003C
:10007000F1C60000EFC60000EDC60000EBC60000B0
:10008000E9C60000E7C60000E5C60000E3C60000C0
:10009000E1C60000DFC60000DDC60000DBC60000D0
:1000A000D9C60000D7C60000D5C60000D3C60000E0
:1000B000D1C60000CFC60000CDC60000CBC60000F0
:1000C000C9C60000C7C60000C5C60000C3C6000000
:1000D000C1C60000BFC60000BDC60000BBC6000010
:1000E000B9C60000084AD73B3BCE016E84BCBFFDB9
:1000F000C12F3D6C74319ABD56833DDA3D00C77FF8
:1001000011BED9E4BB4C3E916BAAAABE0000008090
:100110003F07634236B79BD8A71A39685618AEBA5C
:10012000AB558C1D3CB7CC5763BD6DEDFD753EF6F0
:10013000177231BF000000803F05A84CCDB2D44EED
:10014000B93836A9020C50B9918688083CA6AAAAEB
:100150002ABE000000803F4D313230205335205000
:10016000350A4D31313720457874727564657220D7
:1001700031000000025072696E74657220736574FC
:1001800020696E746F206472792072756E206D6FB5
:10019000646520756E74696C207265737461727425
:1001A00021003A20776F726B696E67003A207465A0
:1001B0006D702073656E736F72206465666563741D
:1001C0000065787472756465722000686561746595
:1001D0006420626564002000200020004D54454DDD
:1001E000503A00504944204175746F74756E652013
:1001F00066696E6973686564202120506C6163656F
:1002000020746865204B702C204B6920616E64203F
:100210004B6420636F6E7374616E747320696E201B
:1002200074686520636F6E66696775726174696F63
:100230006E2E6800504944204175746F74756E6568
:10024000206661696C6564212074696D656F7574E1
:1002500000504944204175746F74756E6520666165
:10026000696C6564212054656D7065726174757286
:100270006520746F206869676800204B643A20002D
:10028000204B693A2000204B703A200020436C61DB
:100290007373696320504944002054753A2000204C
:1002A0004B753A2000206D61783A2000206D696E10
:1002B0003A200020643A200020626961733A2000ED
:1002C000504944204175746F74756E652073746174
:1002D0007274001C151C141414008503F5034904E2
:1002E000B9040905590500005461726765744265D7
:1002F000643A00496620796F75206E6565642061F7
:10030000206869676865722074656D7065726174D4
:100310007572652C20796F75276C6C206861766525
:1003200020746F206368616E676520796F75722035
:100330006669726D7761726520636F6E6669677555
:10034000726174696F6E2E005461726765742074F7
:10035000656D706572617475726520657863656539
:100360006473204845415445445F4245445F4D41D4
:10037000585F54454D503D003A00546172676574B2
:1003800045787472000000A00F5C006009690010DD
:10039000097900C0088C007008A2002008BD00D0B8
:1003A00007DE008007050130073401E0066D01908B
:1003B00006B20140060702F0056D02A005E80250F2
:1003C000057B0300052B04B004F8046004EB06C0B1
:1003D00003350920037F0B8002650DE001B00E405C
:1003E000011D0FF000480FC8006C0FA000ED0F605A
:1003F000FFFE0F48FE0400801AD8009808AC0120C8
:1004000007800250065403C80528045805FC040060
:1004100005D005B004A4066804780728044C08E851
:10042000032009B003F4097003C80A38039C0BF8D1
:1004300002700CB002440D6802180E0802EC0E881F
:1004400001C00F8800F00F00000400001B54006082
:1004500009640010097400C008840070089C002022
:1004600008B800D007D8008007000130072C01E051
:100470000668019006AC0140060002F0056802A083
:1004800005E0025005740300052404B004F0046084
:1004900004DC051004E406C00304087003300920DE
:1004A00003780B8002600DE001A80E4001680FA0E8
:1004B00000C00F0000E80F60FF0400700DD8004876
:1004C00004AC0158038002D8025403800228043887
:1004D00002FC040002D005C801A406980178077048
:1004E000014C08480120091801F409F000C80AC8A5
:1004F000009C0BA000700C7000440D3800180E001A
:1005000000EC0EA8FFC00FE8FE0400E814D800A01D
:1005100005AC0160048002B803540340032804E8DA
:1005200002FC049802D0055802A40620027807E8CD
:10053000014C08B80120098001F4095001C80A20C3
:10054000019C0BE800700CB000440D7000180E28E0
:1005500000EC0EC8FFC00FE8FE0400881CD8004065
:1005600008AC01B8068002E805540358052804E8E1
:1005700004FC048804D0053804A406F8037807B006
:10058000034C08700320093803F409F802C80AC0B4
:10059000029C0B8002700C3802440DF001180E9082
:1005A00001EC0E1001C00F1000205200204A002064
:1005B0004900205000205300204600204500205ACA
:1005C000002059002058004572726F723A2057720D
:1005D0006F6E6720636865636B73756D200045728D
:1005E000726F723A42696E61727920636D6420772E
:1005F000726F6E6720636865636B73756D2E00772D
:10060000616974004563686F3A006F6B006F6B003F
:10061000736B6970200020676F7420004572726FE1
:10062000723A206578706563746564206C696E65E4
:1006300020006F6B006F6B00526573656E643A004B
:100640006572726F723A00494E46004E414E00424A
:100650004C4B2000000020A190D00A8B48E8A086D7
:100660008545041724F403D950C38EB1C2A23D9628
:10067000828B3582127AE372816CCB66A861015D50
:10068000C758EB546151204E1E4B5648C145594343
:100690001A41013F093D2F3B7139CD374036C934EE
:1006A00065331432D430A32F802E6B2D632C672B2F
:1006B000752A8E29B028DC2710274B268F25D924B0
:1006C0002B248223E0224322AC211A218D200420F6
:1006D000801F001F841E0C1E971D261DB81C4E1C5B
:1006E000E61B821B201BC11A641A0A1AB2195D1973
:1006F0000A19B9186A181C18D11788174017FA1662
:10070000B51673163116F115B31576153A15001591
:10071000C7148F1458142214EE13BA1388135613E7
:100720002513F612C71299126C1240121512EB1112
:10073000C1119811701148112111FB10D610B11080
:100740008D106910461024100210E10FC00FA00F89
:10075000800F610F420F230F060FE80ECB0EAF0E76
:10076000930E770E5C0E410E270E0D0EF30DDA0D73
:10077000C10DA80D900D780D600D490D320D1B0DAA
:10078000050DEF0CD90CC30CAE0C990C850C700C3C
:100790005C0C480C350C210C0E0CFB0BE80BD60B3B
:1007A000C40BB20BA00B8E0B7D0B6B0B5A0B4A0BC1
:1007B000390B290B180B080BF80AE90AD90ACA0ADF
:1007C000BB0AAC0A9D0A8E0A800A710A630A550A9E
:1007D000470A390A2C0A1E0A110A040AF709EA090B
:1007E000DD09D009C409B709AB099F099209870936
:1007F0007B096F09630958094C09410936092B091E
:10080000200915090A090009F508EB08E008D608CF
:10081000CC08C208B808AE08A4089A08900887084F
:100820007D0874086B08610858084F0846083D08A1
:1008300034082C0823081A08120809080108F807C8
:10084000F007E807E007D807D007C807C007B807D0
:10085000B007A807A1070000420FA1071605D003A3
:100860000D038B022E02E801B201860163014501EE
:100870002C0117010401F400473238205A0A47318D
:10088000205A313330204631303030300A47323848
:1008900020580A473120583130302046313030302E
:1008A000300A47323820590A473120593130302038
:1008B0004631303030300A4731205A373520463102
:1008C000303030300A00536F6674776172652052A1
:1008D00065736574005761746368646F672052655F
:1008E0007365740042726F776E206F757420526565
:1008F0007365740045787465726E616C205265731F
:10090000657400506F77657255700073746172740E
:100910000000000100250030001D000C001800241C
:100920000031001C000B00170023002F001B000AE1
:10093000001E000D00040009000700080022002B23
:10094000001A0041004200000001003500556E6BA6
:100950006E6F776E20636F6D6D616E643A004D65EA
:10096000617375726564206F726967696E20736563
:10097000742E204D6561737572656D656E7420729D
:10098000657365742E004D65617375726520286D01
:100990006D29203D004D6561737572652028537483
:1009A00065707329203D004D6561737572656D65D5
:1009B0006E742072657365742E00536574204D69E2
:1009C00063726F7374657070696E67004572726FE1
:1009D000723A204E6F20454550524F4D207375702E
:1009E000706F727420636F6D70696C65642E004562
:1009F00072726F723A204E6F20454550524F4D2013
:100A0000737570706F727420636F6D70696C65645C
:100A10002E004572726F723A204E6F20454550523B
:100A20004F4D20737570706F727420636F6D7069B5
:100A30006C65642E006C696E656172204C3A002C06
:100A4000206D6F7665206166746572203D20002CF4
:100A5000206261636B736C617368203D20002C2001
:100A600072657472616374203D20006D696E20644C
:100A7000697374616E6365203D20004F505320669A
:100A8000617374206D6F64653A004F505320636C3E
:100A90006173736963206D6F64653A004F50532032
:100AA00064697361626C6564002C207370656564B1
:100AB0003D00206C696E6561722073746570733AD5
:100AC00000205A4A65726B3A004A65726B3A0045DB
:100AD00072726F723A204E6F20454550524F4D2032
:100AE000737570706F727420636F6D70696C65647C
:100AF0002E004572726F723A204E6F20454550525B
:100B00004F4D20737570706F727420636F6D7069D4
:100B10006C65642E004C20004820007A5F6D61787F
:100B20003A004C20004820007A5F6D696E3A004C14
:100B30002000482000795F6D61783A004C20004821
:100B40002000795F6D696E3A004C200048200078E3
:100B50005F6D61783A004C2000482000785F6D6935
:100B60006E3A004649524D574152455F4E414D4500
:100B70003A52657065746965725F302E3830204670
:100B800049524D574152455F55524C3A6874747002
:100B9000733A2F2F6769746875622E636F6D2F4DDE
:100BA0006574616D617175696E612F5265706574F0
:100BB0006965722D4669726D776172652F2050529A
:100BC0004F544F434F4C5F56455253494F4E3A3165
:100BD0002E30204D414348494E455F545950453AC7
:100BE0004D6574616DC3A17175696E6120322045D8
:100BF000585452554445525F434F554E543A312054
:100C000052455045544945525F50524F544F434FFF
:100C10004C3A320020746F2000536574206F757455
:100C200070757420006572726F723A20496E766139
:100C30006C696420617263002C0045313A20002CFD
:100C40000045303A20002C005A3A20002C00593A36
:100C500020002C00583A20004D53312C4D533220A7
:100C600050696E7300466C6F774D756C7469706C6B
:100C7000793A0053706565644D756C7469706C7970
:100C80003A0020403A0020423A00543A0020453AC7
:100C900000205A3A0020593A00583A00000021003A
:100CA000240027002A002D0030003300010100003D
:100CB000040107010A0100002200250028002B0082
:100CC0002E003100340002010000050108010B0173
:100CD000000020002300260029002C002F003200F5
:100CE00000010000030106010901050505050705CE
:100CF00008080808020202020A0A08080404040498
:100D000001010101010101010303030303030303C3
:100D1000040707070C0C0C0C0C0C0C0C0202020252
:100D200006060606060606060B0B0B0B0B0B0B0B3B
:100D300001021020200808102040102040800201ED
:100D400002010804020101020408102040808040D2
:100D500020100804020180040201804020100804D1
:100D6000020108040201010204081020408001026F
:100D70000408102040800000090A02080B0C0D072F
:100D80000603040100000000000000000000000055
:100D90000000000000000000000000000000000053
:100DA000000011100F000000000000000000000013
:100DB000000000000000000000000000494E46490D
:100DC0004E4954594E414ECDCCCC3D0AD7233C1709
:100DD000B7D13877CC2B329595E6241FB14F0A0056
:100DE0000020410000C84200401C4620BCBE4CCA46
:100DF0001B0E5AAEC59D7400513011241FBECFEF9B
:100E0000D1E2DEBFCDBF00E00CBF13E0A0E0B2E056
:100E1000E6E8FDEC00E00BBF02C007900D92A633A0
:100E2000B107D9F71BBE1EE0A6E3B3E001C01D92D7
:100E3000A93CB107E1F71DE0CAEFDDE004C022974D
:100E4000FE010E947B66C83FD107C9F70E94EE5F92
:100E50000C94C166D5C8A0E0B0E0E1E3F7E00C94E3
:100E60009066EC015B016115710519F0FB0191833E
:100E70008083F9908F2D90E00E947F66892BC9F7BF
:100E8000FDE2FF1621F4F990EE24E39405C02BE275
:100E9000F21609F4F990EE248E0101501040C801B9
:100EA0006CEB7DE043E050E062D2892BF9F48E01D7
:100EB0000E5F1F4FC8016FEB7DE045E050E057D259
:100EC000892B19F48E01095F1F4FA114B10419F089
:100ED000F50111830083E0FC04C070E090E080E83D
:100EE00013C070E090E080E86FEF07C1C80164ECC8
:100EF0007DE043E050E03BD2892B69F4A114B104BA
:100F000029F470E090E080EC6FE7F7C02296F501DD
:100F1000D183C083F6CF8824992440E050E060E07C
:100F200070E0EF2DE053EA30A0F5F2E0EF2A8E2DCD
:100F300090E09C0128703070E2FE06C0232B79F50A
:100F40000894811C911C2BC0232B19F00894810854
:100F50009108DB01CA0112E0880F991FAA1FBB1F6D
:100F60001A95D1F7480F591F6A1F7B1F440F551F51
:100F7000661F771F4E0F511D611D711D483929E9EC
:100F8000520729E9620729E1720748F084E0E82A5C
:100F900006C0EE3F31F4E3FC39C098E0E92AF9904D
:100FA000C0CFE53311F0E53189F529912D3219F4DF
:100FB000E0E1EE2A05C02B3219F081E090E003C099
:100FC000299182E090E0E22FE053EA3018F0C81B4C
:100FD000D90B1CC020E030E0FCE020383F075CF477
:100FE000C901880F991F880F991F280F391F220FD9
:100FF000331F2E0F311DE991E053EA3068F3E4FE10
:1010000003C0309521953F4F820E931ECE2CDD24D8
:10101000E1FE07C0A114B10421F02197F501D183AD
:10102000C083CB01BA010E9404637B018C01F3E011
:10103000CF22DD2423E0C216D10421F417FB109542
:1010400017F9109557016801C801B70120E030E099
:1010500040E050E00E943362882309F44AC097FEC2
:101060000DC02BEDE22E2DE0F22E9094819491088C
:101070009394C0E2D0E000E010E012C093EFE92EBC
:101080009DE0F92EF6CFF7012591359145915491C8
:10109000C601B5010E9447655B016C018C1A9D0A6F
:1010A0008C169D0684F7D595C7950F5F1F4F0630A8
:1010B000110529F08CEF9FEFE80EF91EF1CFC50165
:1010C000D6017C018D018C2D880F8D2D881F8F3FBF
:1010D00051F0C601B50120E030E040E050E00E9450
:1010E0003362882331F482E290E09093C80E8093BB
:1010F000C70E7E2D9F2D802F612F272F392F482F30
:10110000562FB901CA01CDB7DEB7ECE00C94AC663E
:101110002F923F925F926F927F928F929F92AF92A7
:10112000BF92CF92DF92EF92FF920F931F93CF93D4
:10113000DF938C011B01EA016115710519F0FB01B8
:1011400091838083209749F0CE010297839728F0FE
:1011500020E030E040E050E0F6C0F801A1908F01BF
:101160008A2D90E00E947F66892BB9F7FDE2AF16C9
:1011700031F4F801A1908F015524539407C0FBE28C
:10118000AF1619F4F801A1908F015524209719F09A
:10119000C031D105C1F4F0E3AF1679F4F8018081D4
:1011A000883711F0883549F4F801A1800E5F1F4F90
:1011B000F2E05F2AC0E1D0E006C0209721F480E38E
:1011C000A816E9F427C0C830D10531F1C930D105DE
:1011D00024F4C230D10531F50CC0CA30D10589F0F4
:1011E000C031D105F9F4C12CD12CE12CB8E0FB2E93
:1011F00028C0C12CD12CE12CA0E4FA2E22C0CAE0D8
:10120000D0E0FCECCF2EFCECDF2EFCECEF2EFCE073
:10121000FF2E17C0C8E0D0E0C12CD12CE12CE0E1BA
:10122000FE2E0FC09E01442737FD4095542F60E0ED
:1012300070E080E090E80E943C66C901DA016C0130
:101240007D0120E030E040E050E060E03E01882495
:1012500077FC8094982C70EDB72EBA0CE9E0EB1572
:1012600070F48A2D81548A3118F499ECB92E06C095
:101270008A2D81568A3150F589EAB82EBA0C8B2D09
:1012800090E08C179D0714F56F3FE1F0C216D3066E
:10129000E406F506B0F0CA01B901A40193010E9469
:1012A0001D669B01AC012B0D311D411D511D2130CF
:1012B000F0E03F07F0E04F07F0E85F0710F461E06F
:1012C00001C06FEFF801A1908F01C5CF2114310447
:1012D00081F0662331F001501040F1011183008349
:1012E00008C051FE1AC002501040F1011183008362
:1012F00014C067FF12C050FC05C02FEF3FEF4FEF47
:101300005FE704C020E030E040E050E882E290E097
:101310009093C80E8093C70E16C050FE08C050951B
:101320004095309521953F4F4F4F5F4F0CC057FF71
:101330000AC082E290E09093C80E8093C70E2FEF10
:101340003FEF4FEF5FE7B901CA01DF91CF911F91E6
:101350000F91FF90EF90DF90CF90BF90AF909F9054
:101360008F907F906F905F903F902F900895FB013A
:10137000DC014150504088F08D9181341CF08B3558
:101380000CF4805E659161341CF06B350CF4605E8A
:10139000861B611171F3990B0895881BFCCFFC012A
:1013A0008191861721F08823D9F7992708953197DD
:1013B000CF0108952F923F924F925F926F927F924A
:1013C0008F929F92AF92BF92CF92DF92EF92FF9255
:1013D0000F931F93CF93DF93EC01898180FDE2C0CF
:1013E0008E8180FDDFC0ED96E880F9800A811B8147
:1013F000ED97FE01E35BFF4FC801B701208131810A
:10140000428153810E9447653B014C015BE6252EDA
:10141000312C2C0E3D1EC759DF4F48805980B20138
:1014200080E090E00E9404635B016C01A097C8011A
:10143000B701288139814A815B810E9447659B0100
:10144000AC01C601B5010E9447650E94D8627B01CC
:101450008C01F10171836083A496C601B501A401DA
:1014600093010E9447650E94D8623B014C01798339
:101470006883CD56D040C201889F5001999F60017A
:10148000899F8827B00CC11CD81EB00CC11CD81E67
:1014900011249701229FC001339FD001239F22274F
:1014A000900DA11DB21F900DA11DB21F11244DE57D
:1014B000442E512C4C0E5D1EA6019501281B390BA4
:1014C0004A0B5B0BCA01B901CF59DF4FE880F980A5
:1014D0000A811B81EE0CFF1C001F111FA801970140
:1014E0000E943C6649010894811C911CF201918282
:1014F00080829301229FC001339FD001239F222726
:10150000900DA11DB21F900DA11DB21F1124A81A8C
:10151000B90ACA0ADB0AC601B501A80197010E94EF
:101520003C662F5F3F4F3A932A93280D391D26972B
:10153000488159816A817B81C955D040C901A0E0A9
:10154000B0E084179507A607B70748F12E5F3F4F15
:10155000C901A0E0B0E0841B950BA60BB70BB695B4
:10156000A795979587959C018815990530F4881A59
:10157000990AF2019182808203C0F20111821082E5
:10158000FE01E15AFF4F408151812417350728F4AD
:10159000421B530B5183408302C0118210828E8103
:1015A00081608E83DF91CF911F910F91FF90EF901B
:1015B000DF90CF90BF90AF909F908F907F906F9073
:1015C0005F904F903F902F900895282F80919D0E0F
:1015D000882309F04FC08091A90E9091AA0E892B03
:1015E00009F048C0222309F445C090919C0E85E77C
:1015F000989FF0011124E65BF84F6D5F20E335E71B
:1016000040E050E0B1E0A7E075E7B183A683108623
:101610006083EB59FF4F208331834283538352937E
:10162000429332932293E156F040228333834483E2
:10163000558380919C0E8F5F80939C0E803110F0BB
:1016400010929C0E9FB7F89480919D0E8F5F8093AF
:101650009D0E9FBF80919C0E6150205137424040AB
:10166000504031F0879FF0011124E65BF84FCDCF59
:1016700081E0089580E008952F923F924F925F920B
:101680006F927F928F929F92AF92BF92CF92DF9292
:10169000EF92FF920F931F93DF93CF93CDB7DEB7F7
:1016A00062970FB6F894DEBF0FBECDBF888B282F90
:1016B00030E03F872E8785E790E0289FA001299F93
:1016C000500D389F500D1124465B584F5A8749875B
:1016D0007FB7F89460919E0E5889651721F06F5F6F
:1016E000603109F460E020E030E040E050E005E7E0
:1016F00010E023C0862F90E0809FF001819FF00DC5
:10170000909FF00D1124E65BF84F82819381A481B4
:10171000B581280F391F4A1F5B1F6F5F603109F4C5
:1017200060E0203489E1380780E0480780E058070E
:1017300024F0888925E730E00AC098896917D1F636
:10174000F8CFAB85A150AB878FE0AF3F09F48B8713
:10175000BB85B61771F08B2F90E0829FF001839FBD
:10176000F00D929FF00D1124E65BF84F868181FF0A
:10177000E8CFEB85F889EF17B1F02E2F30E085E741
:1017800090E0289FF001299FF00D389FF00D112463
:10179000E65BF84F868181FF06C02B852F5F2B8784
:1017A000203109F41B865B85452F50E05B834A831B
:1017B00085E790E0489FF001499FF00D589FF00D9C
:1017C0001124E65BF84F8181806881837FBF80911F
:1017D0009D0E882309F4A2C408890150003108F045
:1017E0000FE0802F90E09D878C8725E730E0829F77
:1017F0005001839FB00C929FB00C1124AAE4B7E073
:10180000AA0EBB1EF501818180FD88C481814E85B1
:101810005F85429FF001439FF00D529FF00D112410
:1018200080FF03C0EA0FFB1F86C48F01065B184FC1
:10183000D80199966D917D918D919C919C97F50120
:1018400021A532A543A554A50E9459616B017C01D5
:10185000D8019D966D917D918D919C91D097F501C8
:1018600025A536A547A550A90E9459614B015C01E9
:10187000C701B601A70196010E9447657B018C0153
:10188000C501B401A50194010E9447659B01AC010B
:10189000C801B7010E945A610E94B4657B018C01A6
:1018A000A0900B07B0900C07C0900D07D0900E07CA
:1018B000A60195010E94726418165CF00F2EF0E0EC
:1018C0002F2EF0E03F2EF0E84F2EFFE35F2EF02D9D
:1018D00008C0C601B501A80197010E943A621B0128
:1018E0002C0125E730E04C855D85429FF001439F48
:1018F000F00D529FF00D1124E65BF84F808586FDB8
:101900000EC08E859F85829FF001839FF00D929F70
:10191000F00D1124E65BF84F808586FF49C085E70E
:1019200090E0EE85FF85E89FD001E99FB00DF89F1C
:10193000B00D1124A65BB84F2C853D85289FA001D2
:10194000299F500D389F500D1124465B584FD1965A
:101950006D917D918D919C91D497DA01D1962D91C5
:101960003D914D915C91D4970E9459617B018C010E
:10197000E89417F9A0900F07B0901007C0901107D6
:10198000D0901207C801B701A60195010E947264A8
:10199000181674F4C601B501A80197010E943A62B5
:1019A0003B014C01A20191010E94336287FD02C0FC
:1019B0004201310185E790E0EE85FF85E89FD00187
:1019C000E99FB00DF89FB00D1124A65BB84F2C8590
:1019D0003D85289FA001299F500D389F500D11244F
:1019E000465B584FD5966D917D918D919C91D8977E
:1019F000DA01D5962D913D914D915C91D8970E9439
:101A000059617B018C01E89417F9E0913603F0915C
:101A10003703A788B08CC18CD28CC801B701A6014E
:101A200095010E947264181674F4C601B501A801EC
:101A300097010E943A625B016C01A40193010E942C
:101A4000336287FD02C064015301F5E7EF2EF12CEC
:101A5000EC85FD85EE9D8001EF9D100DFE9D100D26
:101A60001124065B184FC601B501D801D9962D91F6
:101A70003D914D915C91DC970E9447650B5B1F4F38
:101A8000F80160837183828393832E853F852E9D29
:101A9000F0012F9DF00D3E9DF00D1124E65BF84FF7
:101AA000A1ACB2ACC3ACD4ACA60195010E947264E7
:101AB000181634F4D801AD92BD92CD92DC921397F2
:101AC000B889EB85BE1709F4DFC185E790E02E8564
:101AD0003F85289FF001299FF00D389FF00D1124BC
:101AE000E956F84F40805180628073802090CC0688
:101AF0003091AB0E3C838091C0069091C106A091BD
:101B0000C206B091C3068D839E83AF83B887898454
:101B10009A8498899150988B9F3F11F4AFE0A88BDD
:101B2000B889EB2EFF24222009F4BDC0EC81EE23FE
:101B300009F4B9C025E730E0E29E6001E39ED00CD5
:101B4000F29ED00C11244AE457E0C40ED51ED601F3
:101B500018968C918878F4019085883899F5292F0A
:101B600030E0C901887890708838910509F49BC0ED
:101B700026FD0EC0EF5AFF4F6081718182819381F3
:101B80002D813E814F8158850E9472641816ACF4F5
:101B9000D40116968C9116978C6016968C9385E7D7
:101BA00090E0E89EF001E99EF00DF89EF00D112402
:101BB000E65BF84F8681826074C0F40186818062A2
:101BC000868371C09878983809F06DC0D601169652
:101BD0008C911697826116968C93B2E02B1609F0C1
:101BE0005DC06091BE067091BF06882777FD809525
:101BF000982F2091850630E040E050E00E941D665D
:101C0000E6E0660F771F881F991FEA95D1F7F60166
:101C1000EB5AFF4F20813181428153810E943C6603
:101C200079018A0171E7672E712C6C0C7D1CF30120
:101C3000E082F18202831383F601E75AFF4F60814D
:101C40007181828193810E9404635B016C016091C8
:101C5000CD067091CE068091CF069091D0062AE0F5
:101C600037ED43E25CE30E94476520E030E040E866
:101C70005FE30E945A619B01AC01C601B5010E945D
:101C80003A620E94D3626E157F058007910734F493
:101C9000D3016D937D938D939C931397F40186816B
:101CA00084608683F1C025E730E0E29EF001E39E88
:101CB000F00DF29EF00D1124E65BF84F8085807FD9
:101CC000803859F0D40118968C911897807F80380D
:101CD00021F48681826086830FC025E730E0E29E92
:101CE000F001E39EF00DF29EF00D1124E65BF84F3B
:101CF000368031FE08C0D40116968C911697846008
:101D000016968C93C1C0F401818181FF05C041AC5E
:101D100052AC63AC74AC13C0C301B201A301920115
:101D20000E944765F401EF5BFF4F208131814281C2
:101D300053810E945A610E94B4652B013C0145E722
:101D400050E0E49E9001E59E300DF49E300D11248C
:101D5000265B384F2B5B3F4FD901AD90BD90CD90A6
:101D6000DC901397A554B040BA8BA98BC301B20184
:101D7000A60195010E94726409891A89035B1F4FAD
:101D800088230CF44FC0F8016081718182819381B6
:101D9000A60195010E943362882359F0FEEF3F228D
:101DA000A989BA8916963C92F801A082B182C282B2
:101DB000D38225E730E0E29EF001E39EF00DF29E33
:101DC000F00D1124E157F84FA080B180C280D3807C
:101DD0008401075B1F4FD8016D917D918D919C917E
:101DE000A60195010E943362882361F0F801A08268
:101DF000B182C282D382D40116968C9116978E7FBF
:101E000016968C9325E730E0E29EF001E39EF00DFC
:101E1000F29EF00D1124E157F84F4080518062800E
:101E2000738020C0D8014D925D926D927C92139781
:101E3000E9E4F0E08E0E9F1ED4014D925D926D920A
:101E40007C921397E7EBFFEF8E0E9F1EA989BA894C
:101E500016968C9116978E7F16968C93F401868138
:101E60008E7F8683F8892B85F21771F045E750E065
:101E7000E49E4001E59E900CF49E900C11248AE4AF
:101E800097E0880E991E45CE90919C0E9983AB8564
:101E9000A91709F4E5C085E790E02A813B81289FD6
:101EA000F001299FF00D389FF00D1124E65BF84FEB
:101EB000E75BFF4FC080D180E280F380E954F040BF
:101EC000FA8BE98B6A2E639430E1631609F4662479
:101ED000462C552445E750E0449E1001459E300CA9
:101EE000549E300C11248AE497E0280E391EA989EB
:101EF000BA8916967C90169771FE0CC0A35BBF4FF3
:101F00008C9011969C9011971296AC901297139604
:101F1000BC9093C0E989FA89818181FF05C081ACB9
:101F200092ACA3ACB4AC14C0C701B601A701960132
:101F30000E944765E989FA89EF5BFF4F2081318173
:101F4000428153810E945A610E94B4654B015C0139
:101F500009891A89035B1F4FB401C501D8012D916E
:101F60003D914D915C910E947264E989FA89E75B29
:101F7000FF4F1816A4F5C082D182E282F382F801E5
:101F800080809180A280B380E989FA89EB5BFF4F62
:101F9000B401C50120813181428153810E943362A5
:101FA0008823B1F4A989BA8916968C911697826014
:101FB00016968C9325E730E0429EF001439EF00D8B
:101FC000529EF00D1124E65BF84F86818460868373
:101FD000A989BA8916968C9116978E7F2CC0B6E087
:101FE0007B2A2EEF7222A989BA8916967C92C0822A
:101FF000D182E282F382E5E7F0E04E9E90014F9EAF
:10200000300D5E9E300D1124265B384F275B3F4F0D
:10201000C401D501F90180839183A283B38329543C
:102020003040F80180839183A283B383D90116964F
:102030008C911697846016968C93B9816B1639F043
:102040003A8A298AC401D5016C017D013CCFF10196
:10205000E75BFF4FC401D50180839183A283B383E3
:1020600065E7E62EF12CEB858E2F90E08E9D8001AA
:102070008F9D100D9E9D100D1124065B184FC801F9
:1020800099D9D80111968C9111978F7711968C93CD
:10209000BB85BF5FBB87B03109F41B86EB858E2FF4
:1020A00090E08E9DF0018F9DF00D9E9DF00D11240E
:1020B000E65BF84F81818068818380919C0EFB856F
:1020C000F81789F689859A8575D985E790E02E8578
:1020D0003F85289FF001299FF00D389FF00D1124B6
:1020E000E65BF84F81818F77818362960FB6F89413
:1020F000DEBF0FBECDBFCF91DF911F910F91FF903B
:10210000EF90DF90CF90BF90AF909F908F907F9097
:102110006F905F904F903F902F90089585E790E0EB
:102120004E855F85489FF001499FF00D589FF00D47
:102130001124E65BF84F868184608683C1CC2F92A0
:102140003F924F925F926F927F928F929F92AF9247
:10215000BF92CF92DF92EF92FF920F931F93DF9384
:10216000CF93CDB7DEB7A4970FB6F894DEBF0FBEFE
:10217000CDBF4C011B012CA3FC01EF5AFF4F608126
:1021800071818281938120E034E244E75BE40E9424
:10219000476520910307309104074091050750914E
:1021A00006070E943A622B013C0180919D0E8A3005
:1021B000C8F5C301B20120E034E244E758E40E94CC
:1021C000336288237CF5E0909D0E60E074E284E742
:1021D00098E4A30192010E94596120E030E040E4BC
:1021E00050E40E9447655B016C01FF240894E11CE8
:1021F000F11C0027F7FC0095102FC801B7010E94C1
:1022000006639B01AC01C601B5010E943A629B01C5
:10221000AC01C301B2010E945A612B013C0121E0D3
:102220002F8F01C01F8EC301B2010E94D362D4015F
:1022300012966D937D938D939C931597F401E75AB5
:10224000FF4F60817181828193810E94046368A342
:1022500079A38AA39BA3C301B20128A139A14AA1F2
:102260005BA10E943A620E94D362698B7A8B8B8B4E
:102270009C8BF10160817181828193819F7720E045
:1022800034E244E75BE40E9447657B018C0168A16E
:1022900079A18AA19BA12091C7023091C8024091E7
:1022A000C9025091CA020E9447659B01AC01C80156
:1022B000B7010E943A620E94D3625B016C0169839C
:1022C0007A838B839C83D10114966D917D918D913E
:1022D0009C9117979F7720E034E244E75BE40E94EB
:1022E00047657B018C0168A179A18AA19BA12091FE
:1022F000CB023091CC024091CD025091CE020E948F
:1023000047659B01AC01C801B7010E943A620E9477
:10231000D3626D837E838F8398876A157B058C05D6
:102320009D0514F4C601B5012B013C0189899A89E8
:10233000AB89BC89481659066A067B0614F42C0141
:102340003D01D40118968C9186FF30C0F101608563
:102350007185828593859F7720E034E244E75BE4D2
:102360000E9447657B018C0168A179A18AA19BA18C
:102370002091CF023091D0024091D1025091D202EF
:102380000E9447659B01AC01C801B7010E943A62F7
:102390000E94D3625B016C0169877A878B879C8777
:1023A00046165706680679063CF004C019861A8658
:1023B0001B861C8663015201D1011C966D917D9193
:1023C0008D919C911F979F7720E034E244E75BE476
:1023D0000E9447657B018C0168A179A18AA19BA11C
:1023E0002091D3023091D4024091D5025091D6026F
:1023F0000E9447659B01AC01C801B7010E943A6287
:102400000E94D3626D877E878F87988BA601950186
:10241000A616B706C806D90614F49B01AC01F40150
:10242000EB5AFF4FDA01C901283C3105410551053E
:1024300024F488EC90E0A0E0B0E080839183A28354
:10244000B383CA01B9010E9406637B018C01F401C8
:10245000E75AFF4F60817181828193810E940463FA
:102460009B01AC01C801B7010E9447657B018C014B
:1024700060E074E284E79BE4A80197010E943A625D
:102480005B016C01F4018085782E84FF26C0618594
:102490007285838594850E9406639B01AC01C80107
:1024A000B7010E943A620E94D36269837A838B8368
:1024B0009C83C601B501D1012D913D914D915C9157
:1024C0000E944765F40161A772A783A794A770FCD7
:1024D0000DC0DC01CB01B05805C080E090E0A0E069
:1024E000B0E0F40181A792A7A3A7B4A7D4011896DE
:1024F0008C911897782E85FF2AC01D966D917D913D
:102500008D919C9150970E9406639B01AC01C8017C
:10251000B7010E943A620E94D3626D837E838F83EB
:102520009887C601B501F101248135814681578123
:102530000E944765D4019D966D937D938D939C93E6
:10254000D09771FC0DC0DC01CB01B05804C080E015
:1025500090E0A0E0B0E0F40185A796A7A7A7B0ABF4
:10256000D40118968C911897782E86FF2AC0519620
:102570006D917D918D919C9154970E9406639B0172
:10258000AC01C801B7010E943A620E94D362698718
:102590007A878B879C87C601B501F101208531853B
:1025A000428553850E944765D401D1966D937D93F2
:1025B0008D939C93D49772FC0DC0DC01CB01B05875
:1025C00004C080E090E0A0E0B0E0F40181AB92AB09
:1025D000A3ABB4ABD40118967C90189777FE2EC0AD
:1025E00055966D917D918D919C9158970E940663AF
:1025F0009B01AC01C801B7010E943A620E94D362FC
:102600006D877E878F87988BC601B501F101248580
:102610003585468557850E944765D401D5966D93CB
:102620007D938D939C93D89773FC08C0DC01CB01FC
:10263000B058F40185AB96ABA7ABB0AFF401EF5A3D
:10264000FF4F6081718182819381A60195010E9473
:102650004765D401D9966D937D938D939C93DC97B8
:102660001E8E18968C918878883821F4B1E0BE8F40
:10267000B093AB0E988E8F8A51E6252E56E0352EFC
:1026800041E7A42E46E0B42EFE013196FE8BED8B81
:102690000F2EFCEECF2EF8E7DF2EFDEAEF2EF0E650
:1026A000FF2EF02D00E010E0D401EC91F0E0EE0FF1
:1026B000FF1FEE0FFF1FE80DF91D81859285A38591
:1026C000B485B595A79597958795EF89F88D818FF6
:1026D000928FA38FB48F20E130E0002E02C0220F32
:1026E000331F0A94E2F7D40118968C9190E02823C6
:1026F0003923232B09F440C0ED89FE896081718163
:10270000828193810E9406632B013C01FE8DFF2391
:1027100031F0D1016D917D918D919C9105C0F501B4
:1027200060817181828193810E9404639B01AC016D
:10273000C301B2010E9447659B01AC01C701B6010C
:102740000E94336287FD18C0FE8DFF2331F0D10156
:102750006D917D918D919C9105C0F5016081718194
:10276000828193810E9404639B01AC01C301B20189
:102770000E9447656B017C010F5F1F4F2F89388DC9
:102780002C5F3F4F388F2F8B84E090E0280E391E4E
:10279000A80EB91EAD89BE891496BE8BAD8B0430D0
:1027A000110509F081CF60E070E080E89FE3F4015B
:1027B00021AD32AD43AD54AD0E943A622DE330E01D
:1027C000820E931ED4016D937D938D939C931397EA
:1027D000E3ECFFEF8E0E9F1ED401EC91F0E0EE0FC4
:1027E000FF1FEE0FFF1FEC0FFD1F618172818381C0
:1027F00094810E9406639B01AC01C701B6010E944F
:102800003A620E94D862E1E6F0E08E0E9F1ED4018B
:102810006D937D938D939D934D010E94046320E001
:1028200030E040E858E40E94476520E034E244E7A5
:102830005BE40E943A620E94D862F4016083718373
:10284000828393832BE93FEF820E931E84010F5BFB
:102850001F4F81E590E0880E991ED4012D913D9186
:102860004D915C91EFEAFFEF8E0E9F1ECA01B901F8
:102870000E945A61A70196010E944765D401D9962A
:102880002D913D914D915C91DC970E94476520E030
:1028900034E244E75BE40E943A62F80160837183AA
:1028A00082839383D401D9968D919D910D90BC9193
:1028B000A02D8A8F9B8FAC8FBD8F60910B0770917D
:1028C0000C0780910D0790910E0720E030E040E06A
:1028D0005FE30E9447652B013C016A8D7B8D8C8DE7
:1028E0009D8DA30192010E943362882324F44A8CB7
:1028F0005B8C6C8C7D8CF401F085F98F2F2E33244A
:10290000F6FF35C0F40181A992A9A3A9B4A95C017D
:102910006D01E894D7F860910F07709110078091CE
:1029200011079091120720E030E040E05FE30E9441
:1029300047657B018C01C601B501A80197010E9482
:1029400072641816A4F4C801B7012A8D3B8D4C8D12
:102950005D8D0E944765A60195010E943A625B0168
:102960006C01A30192010E94336287FD02C06301E2
:102970005201F98DF7FF39C020E722223324E0917C
:102980003603F0913703232819F16789708D818D03
:10299000928D20E030E040E05FE30E9447652A8DA1
:1029A0003B8D4C8D5D8D0E944765D401D5962D9150
:1029B0003D914D915C91D8975F770E943A627B017F
:1029C0008C01A60195010E94336287FD10C00DC0E5
:1029D0006789708D818D928D20E030E040E05FE36B
:1029E0000E9447657B018C0102C086017501C80108
:1029F000B7012A8D3B8D4C8D5D8D0E94336287FD22
:102A000004C0EA8CFB8C0C8D1D8DEDE4F0E08E0E85
:102A10009F1ED401ED92FD920D931C931397F40128
:102A200012930293F292E2924F0127EB3FEF820E54
:102A3000931EC801B701A80197010E944765F401E0
:102A4000EF5BFF4F20813181428153810E945A61A7
:102A50000E94B465D401D9962D913D914D915C9120
:102A6000DC970E947264882324F0F40181818260E3
:102A7000818325E530E0820E931ED4012D913D9196
:102A80004D915C9160E074E284EF90E00E943C66BE
:102A90001901E4E1F0E08E0E9F1ED4012D933C93CA
:102AA000E7E9FFEF8E0E9F1ED40118964C91242F5C
:102AB00030E0C90180779070892B21F047FF02C078
:102AC00043FD0CC0EFE6F0E08E0E9F1ED4011D9278
:102AD0001C92E1E9FFEF8E0E9F1E69C0F40185A9EB
:102AE00096A9A7A9B0AD2C013D01E89477F8E09133
:102AF0003603F0913703C301B20125A136A147A1E6
:102B000050A50E9447652FE632E143E85AE30E9450
:102B100047652091C3023091C4024091C502509193
:102B2000C6020E9447655B016C012FE630E0820E11
:102B3000931E20E030E040E857E40E9447657B01A7
:102B40008C01B10180E090E00E9404639B01AC0124
:102B5000C801B7010E943A620E94D862D4016D9305
:102B60007C93E1E9FFEF8E0E9F1E60919F0E7091A6
:102B7000A00E882777FD8095982F0E9406639B0101
:102B8000AC01C601B5010E947264181684F4C60136
:102B9000B5010E94D3627093A00E60939F0E409285
:102BA000A10E5092A20E6092A30E7092A40E80917C
:102BB0009C0E0E943C0B25E530E0820E931EF40132
:102BC00080819181A281B3812BEA3FEF820E931E17
:102BD0008F5C9740A040B04018F08F8D882321F083
:102BE000D40117961C9220C081E0F4018783E08114
:102BF000F0E0EE0FFF1FEE0FFF1FE80DF91D8185BE
:102C00009285A385B485F40185A396A3A7A3B0A755
:102C100081A392A3A3A3B4A3858F968FA78FB0A3FC
:102C2000818F928FA38FB48F80919C0E8F5F809342
:102C30009C0E803111F410929C0EFCA1FF2331F008
:102C400086E490E09093AA0E8093A90E9FB7F89423
:102C500080919D0E8F5F80939D0E9FBFA4960FB6AF
:102C6000F894DEBF0FBECDBFCF91DF911F910F91C2
:102C7000FF90EF90DF90CF90BF90AF909F908F909C
:102C80007F906F905F904F903F902F9008952F927C
:102C90003F924F925F926F927F928F929F92AF92EC
:102CA000BF92CF92DF92EF92FF920F931F93DF9329
:102CB000CF93CDB7DEB7EF970FB6F894DEBF0FBE58
:102CC000CDBF8EAB6FAB809181068E7F80938106E6
:102CD00004C00E9413350E94C44E80919D0E803125
:102CE000C0F78FA960E00E94E50A8DA320919C0E99
:102CF0002DAB422F50E05CAB4BAB6EA9662371F05D
:102D000085E790E0489FF001499FF00D589FF00D36
:102D10001124E65BF84F80E181830EC085E790E0E7
:102D2000ABA9BCA9A89FF001A99FF00DB89FF00D19
:102D30001124E65BF84F118285E790E02BA93CA9AE
:102D4000289FF001299FF00D389FF00D1124E65BBC
:102D5000F84F16823FA9332311F482E0868385E77A
:102D600090E04BA95CA9BC01469FC001479F900D14
:102D7000569F900D1124FC01E65BF84F1086A09140
:102D80000907B0910A07BEA7ADA728E9222E26E0C1
:102D9000322E9C012D5A384F3AA329A349014424CD
:102DA0005524AA24BB2498E0692E712C6E0E7F1E38
:102DB000AF014B5E5F4F5BAF4AAFBD0180E090E07B
:102DC0006CAF7DAF8EAF9FAF49AED10150962D91C4
:102DD0003D914D915C9153972FA738AB49AB5AABBE
:102DE0008D919D910D90BC91A02D281B390B4A0B04
:102DF0005B0BF401208331834283538357FD0DC065
:102E000021E030E0042C02C0220F331F0A94E2F7C5
:102E1000D3018C91822B8C930CC088279927DC01DD
:102E2000821B930BA40BB50BF40180839183A283C7
:102E3000B383F3E04F1649F52DA53EA524363105A1
:102E400021F1AAADBBAD6D917D918D919C910E94B8
:102E500006637B018C016CAD7DAD8EAD9FAD0E9494
:102E600004639B01AC01C801B7010E9447652AE0D9
:102E700037ED43E25CE30E9447650E94D362EAAD0E
:102E8000FBAD6083718382839383D401ED90FD90C9
:102E90000D911C9181E0C82ED12CCC0EDD1ECA0CE8
:102EA000DB1CC801B7010E940663F501EF5AF94F18
:102EB00020813181428153810E944765F601608300
:102EC000718382839383E114F1040105110561F09C
:102ED00020E130E009AC02C0220F331F0A94E2F770
:102EE000D3018C91822B8C93D1012FA538A949A9AC
:102EF0005AA92D933D934D935D931D010894411C58
:102F0000511CE4E0F0E0AE0EBF1E8E0E9F1EF0E1FD
:102F1000AF16B10409F058CF6091220770912307D2
:102F200080912407909125072D853E854F855889EE
:102F30000E945A61609322077093230780932407AD
:102F40009093250785E790E02BA93CA9289F1001C5
:102F5000299F300C389F300C11244AE457E0240E8E
:102F6000351ED10118969C91892F807F51F4BDA107
:102F7000BB2309F4DCC210929D0EEDA9E0939E0ED6
:102F8000D6C24101F101EF58FF4F10821182128227
:102F90001382292F30E0C90180779070892B09F4C2
:102FA000F2C18091330790E02827392727703070CD
:102FB00013E0959587951A95E1F728233923232B5C
:102FC00029F4E1C10E9413350E94C44E80919D0EE8
:102FD0008F30C0F7E0919C0EEF5FE03108F0E0E049
:102FE0002E2F30E03CA72BA785E790E0289FA0017B
:102FF000299F500D389F500D1124465B584F5CA3FC
:103000004BA3DA01F10185E701900D928150E1F7C0
:1030100085E790E06BA97CA9689FF001699FF00D9E
:10302000789FF00D1124E65BF84F208570913307EF
:103030007AA780E090E0A0E0B0E08D8F9E8FAF8F08
:10304000B8A3872F82278770382F80FD09C080E0C2
:1030500090E0A0E0B0E08EA39FA3A8A7B9A71AC0F4
:1030600020FF09C040912707509128076091290748
:1030700070912A070BC08091270790912807A09193
:103080002907B0912A07AC01BD0170584EA35FA378
:1030900068A779A76EA17FA188A599A5698B7A8B6E
:1030A0008B8B9C8B31FD0BC00F2EF0E08F2EF0E050
:1030B0009F2EF0E0AF2EF0E0BF2EF02D19C021FFC3
:1030C00009C080902B0790902C07A0902D07B090FE
:1030D0002E070EC080912B0790912C07A0912D07F1
:1030E000B0912E074C015D01B7FAB094B7F8B094D7
:1030F0008D8A9E8AAF8AB88E32FD0BC00F2EF0E00B
:103100004F2EF0E05F2EF0E06F2EF0E07F2EF02DDE
:1031100019C022FF09C040902F07509030076090DF
:103120003107709032070EC080912F0790913007C1
:10313000A0913107B09132072C013D0177FA7094CC
:1031400077F87094498E5A8E6B8E7C8E85E790E06E
:10315000ABA9BCA9A89FF001A99FF00DB89FF00DE5
:103160001124E65BF84F27702087EE24FF2400E04F
:1031700010E0B8E0CB2ED12CCE0EDF1EE8AEE1E1A0
:10318000F0E0EC0FFD1FE00FF11FD801A954BD4F77
:1031900060817181828193812D913D914D915C91EE
:1031A0000E9447650E94D36297FF07C09095809563
:1031B000709561957F4F8F4F9F4FE9A1FAA1608372
:1031C000718382839383611571058105910561F097
:1031D00020E130E008AC02C0220F331F0A94E2F76E
:1031E000D6018C91822B8C930894E11CF11C0C5F0E
:1031F0001F4FE9A1FAA13496FAA3E9A30031110502
:1032000009F0BCCF85E790E02BA93CA9289FF001ED
:10321000299FF00D389FF00D1124E65BF84F2585AE
:10322000368547855089E184F28403851485E2164A
:10323000F306040715075CF481899289A389B48990
:1032400082179307A407B50714F481E019C085E736
:1032500090E04BA95CA9489FF001499FF00D589F51
:10326000F00D1124E65BF84F81899289A389B48916
:103270008E159F05A007B10714F4108202C082E0EA
:10328000808385E790E06BA97CA9DC016A9FC0017F
:103290006B9F900D7A9F900D11248C01065B184F47
:1032A000D801EC91F0E0EE0FFF1FEE0FFF1FE80FCB
:1032B000F91FE65BF84F81859285A385B485075A8F
:1032C0001F4FF80180839183A283B3830955104077
:1032D0006EA17FA188A599A59B01AC010E944765BD
:1032E0006B017C01C501B401A50194010E944765F1
:1032F0009B01AC01C701B6010E945A616B017C01C0
:10330000D80118968C910F5A1F4F86FF14C0C30125
:10331000B201A30192010E9447659B01AC01C70164
:10332000B6010E945A610E94B465F80160837183FE
:10333000828393830AC0C701B6010E94B465D80195
:103340006D937D938D939C93139785E790E02BA5C8
:103350003CA5289FF001299FF00D389FF00D112406
:10336000E65BF84F808587703AA53873832B80938E
:103370003307C101BE016F5E7F4F40E02FA90E945D
:103380009F108BA09CA0D4011D962D913D914D9135
:103390005C9150971996ED90FD900D911C911C97A2
:1033A000E216F30604071507BCF451968D919D9122
:1033B0000D90BC91A02D82179307A407B50764F464
:1033C000F40185899689A789B08D82179307A40790
:1033D000B50714F4E1E026C0D40151962D913D913A
:1033E0004D915C9154972E153F05400751076CF4A1
:1033F00055968D919D910D90BC91A02D8E159F0598
:10340000A007B10714F4E0E00DC0F40185899689A6
:10341000A789B08D82179307A407B50714F0E3E0DE
:1034200001C0E2E0D401EC93F0E0EE0FFF1FEE0FDD
:10343000FF1FE80DF91D81859285A385B485E9E517
:10344000F0E08E0E9F1EF40180839183A283B383EC
:1034500027EA3FEF820E931ED40118962C91622E1C
:103460007724C30180779070892B09F444C02981A7
:103470003A814B815C81ED80FE800F811885CA0105
:10348000B9010E9447655B016C01C801B701A80141
:1034900097010E9447659B01AC01C601B5010E94DE
:1034A0005A617B018C0161E5C62ED12CC80CD91C58
:1034B00066FE16C029853A854B855C85CA01B9012F
:1034C0000E9447659B01AC01C801B7010E945A6187
:1034D0000E94B465F60160837183828393831FC069
:1034E000C801B7010E94B465D6016D937D938D9399
:1034F0009C93139714C027FF1AC0E1E5F0E08E0EED
:103500009F1E8D859E85AF85B889BF77F401808326
:103510009183A283B3832FEA3FEF820E931EC401EF
:10352000BE016F5F7F4F4EA92FA90E949F10EF969B
:103530000FB6F894DEBF0FBECDBFCF91DF911F91C4
:103540000F91FF90EF90DF90CF90BF90AF909F9042
:103550008F907F906F905F904F903F902F90089545
:103560002F923F924F925F926F927F928F929F9293
:10357000AF92BF92CF92DF92EF92FF920F931F9381
:10358000DF93CF93CDB7DEB7C154D0400FB6F894D8
:10359000DEBF0FBECDBF4C012B015AAF49AF0BAF01
:1035A0001CAF2DAF3EAFEFAEDA01AD90BD90CD9028
:1035B000DD90B8AFAFABC601B501F4012081318118
:1035C000428153810E945A616BA77CA78DA79EA759
:1035D000A9ADBAAD1496ED90FD900D911C91179781
:1035E000C801B701F40124813581468157810E94C9
:1035F0005A616FA378A789A79AA72091B406309142
:10360000B5064091B6065091B7062BAB3CAB4DAB1F
:103610005EAB8091A4069091A506A091A606B091FC
:10362000A7068FA798ABA9ABBAABA60195015058D6
:103630002BA33CA34DA35EA3D801C701B0588F8F25
:1036400098A3A9A3BAA3D2016D917D918D919C916C
:103650002BA53CA54DA55EA50E9459613B014C01DF
:10366000F20164817581868197812FA138A549A5D2
:103670005AA50E9459611B012C012091A806309186
:10368000A9064091AA065091AB062B8F3C8F4D8F17
:103690005E8F8091AC069091AD06A091AE06B09180
:1036A000AF068F8B988FA98FBA8F6BA17CA18DA14C
:1036B0009EA1A20191010E9447657B018C016F8D43
:1036C00078A189A19AA1A40193010E9447659B0159
:1036D000AC01C801B7010E9459615B016C016BA18B
:1036E0007CA18DA19EA1A40193010E9447657B014D
:1036F0008C016F8D78A189A19AA1A20191010E94EC
:1037000047659B01AC01C801B7010E945A619B014A
:10371000AC01C601B5010E94CD615B016C0120E0E6
:1037200030E040E050E00E943362882354F4C60148
:10373000B5012BED3FE049EC50E40E945A615B017A
:103740006C019FAD992351F0C601B5012BED3FE00F
:1037500049EC50E40E9459615B016C01C601B5015E
:103760009F772BAD3CAD4DAD5EAD0E9447653B01F3
:103770004C012FE632E143E85AE30E94336287FDB1
:10378000E2C1E0900307F090040700910507109153
:103790000607C801B70120E030E040E752E40E948C
:1037A000726418161CF5C801B7012DE83AE748E81D
:1037B0005CE30E9447657B018C0120E030E040E43F
:1037C00050E40E947264181654F40F2EF0E0EF2EAD
:1037D000F0E0FF2EF0E40F2FF0E41F2FF02DC401D6
:1037E000B301A80197010E943A6202C0C401B3016B
:1037F0000E9441630E94D8627E8B6D8BAD89BE8929
:10380000AB2B21F4E1E0F0E0FE8BED8B2D893E89BE
:10381000B90180E090E00E9404637B018C01C60145
:10382000B501A80197010E943A62698B7A8B8B8B54
:103830009C8B6BA97CA98DA99EA92FA538A949A904
:103840005AA9621B730B840B950B0E940663A80197
:1038500097010E943A626D877E878F87988B69896E
:103860007A898B899C8920E030E040E05FEB0E9400
:10387000476529893A894B895C890E94476520E020
:1038800030E040E85FE30E945A6169877A878B875E
:103890009C876FA578A989A99AA90E940663698364
:1038A0007A838B839C8341E050E022965FAF4EAFDA
:1038B0002297992417C192FC04C00E9413350E94DC
:1038C000C44E58E159150CF446C06BA17CA18DA1E2
:1038D0009EA129893A894B895C890E9447657B01B1
:1038E0008C016F8D78A189A19AA129853A854B8594
:1038F0005C850E9447659B01AC01C801B7010E942D
:103900005A617B018C016BA17CA18DA19EA12985AF
:103910003A854B855C850E9447655B016C016F8D24
:1039200078A189A19AA129893A894B895C890E9449
:1039300047659B01AC01C601B5010E9459616BA3AB
:103940007CA38DA39EA39394C701D8018F8F98A3C6
:10395000A9A3BAA363C02296AEADBFAD2297BD01A5
:1039600080E090E00E94046329893A894B895C8950
:103970000E9447657B018C01C8010E9437626D83FC
:103980007E838F839887B701C8010E94AA653B0197
:103990004C01E9ADFAADE080F1800281138117FBA3
:1039A000109517F91095AFA9B8AD2D903D904D9099
:1039B0005C90C801B7012D813E814F8158850E94DE
:1039C00047655B016C01C201B101A40193010E9432
:1039D00047659B01AC01C601B5010E945A616BA30A
:1039E0007CA38DA39EA3C801B701A40193010E94EB
:1039F00047657B018C01C201B1012D813E814F8160
:103A000058850E9447659B01AC01C801B7010E941F
:103A100059616F8F78A389A39AA3992469817A81C8
:103A20008B819C812D853E854F8558890E945A61E6
:103A300069837A838B839C836BA57CA58DA59EA5CA
:103A40002BA13CA14DA15EA10E945A612091B70219
:103A50003091B8024091B9025091BA020E94476574
:103A60000E94D3626093A8067093A9068093AA0669
:103A70009093AB066FA178A589A59AA52F8D38A143
:103A800049A15AA10E945A612091BB023091BC0207
:103A90004091BD025091BE020E9447650E94D362D0
:103AA0006093AC067093AD068093AE069093AF061C
:103AB00069817A818B819C810E94D3626093B40674
:103AC0007093B5068093B6069093B70681E061E0E7
:103AD000DED82296EEADFFAD229731962296FFAF4B
:103AE000EEAF229722962EAD3FAD22974D895E898B
:103AF0002417350708F4DFCE8B8D9C8DAD8DBE8DE0
:103B00008093A8069093A906A093AA06B093AB064B
:103B10002F89388D498D5A8D2093AC063093AD0690
:103B20004093AE065093AF068BA99CA9ADA9BEA940
:103B30008093B4069093B506A093B606B093B706EB
:103B400081E061E0A4D8CF5BDF4F0FB6F894DEBF11
:103B50000FBECDBFCF91DF911F910F91FF90EF90DE
:103B6000DF90CF90BF90AF909F908F907F906F909D
:103B70005F904F903F902F9008952F923F924F92D9
:103B80005F926F927F928F929F92AF92BF92CF92ED
:103B9000DF92EF92FF920F931F93DF93CF93CDB7F6
:103BA000DEB72C970FB6F894DEBF0FBECDBF609086
:103BB00003077090040780900507909006076D82B8
:103BC0007E828F82988620909C0630909D06409041
:103BD0009E0650909F066090A0067090A10680906F
:103BE000A2069090A30669827A828B829C82609062
:103BF000A4067090A5068090A6069090A7066986F8
:103C00007A868B869C866090980670909906809044
:103C10009A0690909B06660E771E881E991E6092EB
:103C2000A8067092A9068092AA069092AB06220E70
:103C3000331E441E551E2092AC063092AD064092B3
:103C4000AE065092AF0689819A81AB81BC818E0D00
:103C50009F1DA01FB11F8093B0069093B106A09343
:103C6000B206B093B30669847A848B849C846A0C10
:103C70007B1C8C1C9D1C6092B4067092B5068092D1
:103C8000B6069092B7068AA19BA1ACA1BDA1809374
:103C9000030790930407A0930507B09306078FA12D
:103CA00060E00E9447168D819E81AF81B885809328
:103CB000030790930407A0930507B09306078EA10E
:103CC000882311F00E94DD4E2C960FB6F894DEBFCB
:103CD0000FBECDBFCF91DF911F910F91FF90EF905D
:103CE000DF90CF90BF90AF909F908F907F906F901C
:103CF0005F904F903F902F900895EF92FF920F9317
:103D00001F93E0908D02F0908E0200918F0210912F
:103D10009002C801B70120E030E040E050E00E948E
:103D20003362882391F16091870270E080E090E037
:103D30000E94046320E030E040E251E40E944765C5
:103D4000A80197010E943A626093960270939702CD
:103D500080939802909399026091880270E080E0CD
:103D600090E00E94046320E030E040E251E40E94D1
:103D70004765A80197010E943A6260939A02709386
:103D80009B0280939C0290939D021F910F91FF9044
:103D9000EF900895EF92FF920F931F93CF93DF93CD
:103DA000EC01EE8CFF8C08A119A1C801B70120E03D
:103DB00030E040E050E00E943362882341F1688D9A
:103DC00070E080E090E00E94046320E030E040E298
:103DD00051E40E944765A80197010E943A626FA3CF
:103DE00078A789A79AA7698D70E080E090E00E948B
:103DF000046320E030E040E251E40E944765A801FE
:103E000097010E943A626BA77CA78DA79EA7DF91BE
:103E1000CF911F910F91FF90EF900895E091B10223
:103E2000F091B2022781308541855285B901CA01DE
:103E300008954F925F926F927F928F929F92AF926E
:103E4000BF92CF92DF92EF92FF920F931F93CF9387
:103E5000DF937B01853340F4823308F045C0815005
:103E6000873008F00CC10AC0813608F408C18436D6
:103E700008F49CC0843609F002C17EC090E0FC01C9
:103E8000ED52FD4F4491440FFC01EE0FFF1FE6522F
:103E9000FD4F25913491F90145905490F9013296E6
:103EA000659074900CEF1FE0061B170B82E019C0A1
:103EB000E82FF0E0EE0FFF1FE20FF31F85909490C4
:103EC0008F5FE82FF0E08150EE0FFF1FE20FF31F2E
:103ED000C591D491081519050CF481C08E5F3E017F
:103EE0002401841728F342C08E5290E0FC01ED5269
:103EF000FD4F4491440FFC01EE0FFF1FE652FD4FB2
:103F000025913491F90145905490F90132966590CC
:103F1000749082E029C0E82FF0E0EE0FFF1FE20F5F
:103F2000F31F859094908F5FE82FF0E08150EE0FA3
:103F3000FF1FE20FF31FC591D491E814F9048CF42C
:103F4000B301882777FD8095982F0E9406635B0157
:103F50006C01E418F508B701882777FD8095982F44
:103F60004EC08E5F3E0124018417A8F2BE0188274F
:103F700077FD8095982F7AC0B701882777FD8095C7
:103F8000982F24EF31E040E050E00E941D6620E0D1
:103F900030E140E050E00E945E66442737FD4095E6
:103FA000542FCA01B9010E9406636AC0813619F410
:103FB000E8E3F3E004C0823611F4ECEBF3E0408078
:103FC0005180628073800CEF1FE00E191F0982E0A0
:103FD00084809580C681D78108151905DCF5B30169
:103FE000882777FD8095982F0E9406635B016C01FE
:103FF000B80164197509882777FD8095982F0E946C
:1040000006637B018C01C619D709BE01882777FD9D
:104010008095982F0E9406639B01AC01C801B701EF
:104020000E9447657B018C0184189508B40188279C
:1040300077FD8095982F0E9406639B01AC01C80113
:10404000B7010E943A629B01AC01C601B5010E9412
:104050005A610EC08E5F34963E012401823409F00D
:10406000B7CFBE01882777FD8095982F0E94066301
:1040700020E030E040E05EE30E94476501C003C0FD
:10408000FB01A82F692F4A2F562FBF01CA01DF91CC
:10409000CF911F910F91FF90EF90DF90CF90BF9045
:1040A000AF909F908F907F906F905F904F9008950A
:1040B000CF92DF92EF92FF920F931F93CF93DF93F4
:1040C000182FCB01BA0120E030E040E051E40E941B
:1040D00047650E94D362DB01153348F4123308F0C0
:1040E00061C0812F8150873008F0FEC00AC01136B0
:1040F00008F4FAC0143608F4B7C0143609F0F4C056
:104100009FC090E0FC01ED52FD4FD490DD0CFC010E
:10411000EE0FFF1FE652FD4F65917491FB01259153
:104120003491FB013296E590F49082E034C0E82FA0
:10413000F0E0EE0FFF1FE60FF71F459154918F5FE0
:10414000E82FF0E08150EE0FFF1FE60FF71F0591FB
:1041500014910A171B07E4F4CCEFDFE0C21BD30B6A
:10416000241B350BB901882777FD8095982F97017F
:104170002A1B3B0B442737FD4095542F0E941D6698
:10418000E01AF10A9701442737FD4095542F9CC04F
:104190008E5F78019A018D1550F2CCEFDFE0C41BE1
:1041A000D50BA3C01E52812F90E0FC01ED52FD4FB4
:1041B0004491440FFC01EE0FFF1FE652FD4F259185
:1041C0003491F901C590D490F9013296E590F490BC
:1041D00082E033C0E82FF0E0EE0FFF1FE20FF31F85
:1041E000C591D4918F5FE82FF0E08150EE0FFF1F53
:1041F000E20FF31F05911491A017B107DCF4B6018B
:104200006C1B7D0B882777FD8095982F97012A1BC3
:104210003B0B442737FD4095542F0E941D66E01A42
:10422000F10A9701442737FD4095542F0E945E669E
:10423000E6014CC08E5F78016E01841758F255C0BC
:10424000BD01882777FD8095982F0CE0660F771FBA
:10425000881F991F0A95D1F724EF31E040E050E024
:104260000E945E66E90141C0113619F4E8E3F3E00B
:1042700004C0123611F4ECEBF3E0208131810281AD
:10428000138182E044815581E680F780EA16FB06BF
:1042900004F5CCEFDFE0C21BD30B241B350BB901B7
:1042A000882777FD8095982F98012A1B3B0B442780
:1042B00037FD4095542F0E941D660E191F09980165
:1042C000442737FD4095542F0E945E66C20FD31FCE
:1042D0000CC08E5F349687019A01823499F6CCEF38
:1042E000DFE0C41BD50B01C001C0CE01DF91CF912F
:1042F0001F910F91FF90EF90DF90CF900895CF9294
:10430000DF92EF92FF920F931F93CF93DF938091F1
:10431000810682FD02C080E040C09FEAC92E92E083
:10432000D92EC0E0D0E0D601ED91FC91E780F08479
:1043300001851285C13039F48DE295E06BEC71E0B6
:104340000E941A3007C08DE295E061EC71E0AE0189
:104350000E949F30C801B7010E94D362665F7F4F01
:104360006B59714028F08DE295E06CEA71E004C071
:104370008DE295E062EA71E00E94B130219682E020
:1043800090E0C80ED91EC230D10569F68DE295E0E5
:1043900065E771E00E94B13081E0DF91CF911F911C
:1043A0000F91FF90EF90DF90CF9008952F923F9262
:1043B0004F925F926F927F928F929F92AF92BF9235
:1043C000CF92DF92EF92FF920F931F93DF93CF93E1
:1043D00000D000D0CDB7DEB70FEA12E01A83098310
:1043E0001C828091B5021C81181709F4CAC1A981E9
:1043F000BA810D90BC91A02DBE83AD831296EC9135
:10440000129711968C91853330F48233C8F4815021
:10441000873038F409C0813620F0843628F084369D
:1044200079F06FEF7FE013C0F0E0EE0FFF1FE65B67
:10443000FB4F808191816CEF7FE0681B790B07C097
:10444000F0E0EE0FFF1FE65BFB4F60817181ED81B5
:10445000FE81748363838181ECDC5B016C01AD813F
:10446000BE8117966D937D938D939C931A971091AF
:10447000810612FD16C020E030E040E251EC0E94BF
:10448000336287FD0AC0C601B50120E030E048EC88
:1044900053E40E947264181624F414601093810689
:1044A0002EDF8091810682FD6CC11B82ED81FE8131
:1044B00023813481858196812817390714F4F1E02E
:1044C000FB83AD81BE819F968C919F97E82FF0E092
:1044D0003C96EE0FFF1FEE0FFF1FEA0FFB1F179614
:1044E000AD90BD90CD90DC901A97A082B182C2822F
:1044F000D3828F5F83709F968C939F9753968C91F6
:104500005397813009F0DEC01B96ED90FD900D9120
:104510001C911E97C801B70120E030E040EA51E449
:104520000E94336287FDC5C0C801B701A60195018D
:104530000E9459613B014C0120E030E040E751E42A
:104540000E947264181624F4ED81FE8166A1B2C047
:10455000C401B30120E030E040E751EC0E94336237
:1045600087FDA7C0AD81BE815A962D903D904D909C
:104570005C905D9754966D917D918D919C9157972C
:104580000E940663A40193010E945A615B016C01C1
:10459000ED81FE81E3A4F4A405A516A5A801970169
:1045A0000E943362882384F0AD81BE819796ED909E
:1045B000FD900D911C919A97C601B501A801970134
:1045C0000E94726418161CF4C801B70102C0C6012B
:1045D000B5010E94D3625B016C01ED81FE81648BA9
:1045E000758B868B978BC201B101A40193010E9448
:1045F00047657B018C01C601B5010E940663AD8150
:10460000BE815E962D913D914D915C9191970E9456
:1046100047652DEC3CEC4CEC5DE30E9447659B014B
:10462000AC01C801B7010E945A617B018C01AD81C8
:10463000BE819F96EC919F97F0E03C96EE0FFF1F96
:10464000EE0FFF1FEA0FFB1F608171818281938152
:1046500017962D913D914D915C911A970E94596149
:10466000ED81FE8122A133A144A155A10E9447659D
:104670002FED3FE445E550E40E9447650E94D36278
:104680000E9406639B01AC01C801B7010E945A61F8
:104690000E94D3629B01AC0177FD0BC0AD81BE814E
:1046A00096968C9190E0B901821793071CF4BC0197
:1046B00001C060E0AD81BE81EC91F0E0EB55F14FBF
:1046C00060833AC0823059F50E94745F9B01AC014F
:1046D000ED81FE8187859089A189B28979018A015E
:1046E000E81AF90A0A0B1B0BD801C7018958934134
:1046F000A040B04008F1E0811B81112311F480E05B
:1047000001C08FEFF0E0EB55F14F8083AD81BE81AA
:104710001F962D933D934D935C9352970DC0AD81A1
:10472000BE81EC91BB81BB2311F480E001C08FEF0F
:10473000F0E0EB55F14F8083ED81FE81678170855C
:104740008185928520E030E042E853E40E94726463
:1047500018163CF4AD81BE81EC91F0E0EB55F14FC1
:10476000108280913603909137038996ED81FE8106
:10477000E817F90731F4FB81FF2311F02F9A01C0EC
:104780002F980C810F5F0C8329813A812E5F3F4F58
:104790003A832983023009F024CE8091810682FF7A
:1047A00017C0E091AF02F091B002E081F0E0EB556C
:1047B000F14F1082E091B102F091B202E081F0E09D
:1047C000EB55F14F108280910303886080930303BF
:1047D00026960FB6F894DEBF0FBECDBFCF91DF9106
:1047E0001F910F91FF90EF90DF90CF90BF90AF900F
:1047F0009F908F907F906F905F904F903F902F9001
:104800000895CF92DF92EF92FF920F930E94745F10
:104810009B01AC017DE2C72E75E0D72EC6016CED81
:1048200071E00E945A34E091B302F0E0EE0FFF1FF6
:10483000E155FD4FE080F180F7012781308541850A
:104840005285C6016AED71E002E00E943737F70138
:104850002385348545855685C60168ED71E000E005
:104860000E943737F7018081E5EAFEE0E80FF11D8D
:104870004081C60166ED71E050E00E94D1310F9198
:10488000FF90EF90DF90CF900895EF92FF920F93FB
:104890001F937B018C0120E030E040EF52E40E9446
:1048A00072641816CCF48DE295E068E473E048E792
:1048B00050E00E94D1318DE295E063EF72E00E94FA
:1048C000B1300F2EF0E0EF2EF0E0FF2EF0EF0F2FC3
:1048D000F2E41F2FF02D14C0C801B70120E030E032
:1048E00040E050E00E943362882354F40F2EF0E041
:1048F000EF2EF0E0FF2EF0E00F2FF0E01F2FF02D55
:1049000060917A0270917B0280917C0290917D028D
:10491000A80197010E943362882301F1E0927A0294
:10492000F0927B0200937C0210937D0280917002D2
:10493000B801A701BDDB90937502809374022091AA
:104940007A0230917B0240917C0250917D028DE28F
:1049500095E068EE72E000E00E941C371F910F9115
:10496000FF90EF900895AF92BF92CF92DF92EF92B7
:10497000FF920F931F93CF93DF936B017C01B42EB3
:10498000E091AF02F091B0026385748585859685CC
:1049900020E030E040E751E40E947264181614F4FD
:1049A000AA2402C0AA24A394C701B60120E030E0E3
:1049B00042E853E40E94726418165CF40F2EF0E093
:1049C000CF2EF0E0DF2EF2E8EF2EF3E4FF2EF02DF5
:1049D00014C0C701B60120E030E040E050E00E9482
:1049E0003362882354F40F2EF0E0CF2EF0E0DF2E58
:1049F000F0E0EF2EF0E0FF2EF02D0B2D10E0F8018F
:104A0000EE0FFF1FE155FD4FC081D181C701B601F7
:104A10002B853C854D855E850E943362882309F491
:104A20007DC08981B701A60143DB9E838D83CB8640
:104A3000DC86ED86FE86C701B60120E030E048E462
:104A400052E40E94336288236CF48FE690E0089F62
:104A5000F001099FF00D189FF00D1124E259FD4F50
:104A600010820FC08FE690E0089FF001099FF00DC3
:104A7000189FF00D1124E050FE4FE359FF4F819134
:104A800080836B2D70E080E090E00E9404639B01C6
:104A9000AC018DE295E06AE773E000E00E943737F1
:104AA0008DE295E068E773E0A70196010E941C374C
:104AB000E0913603F09137038081B81671F4C70195
:104AC000B60120E030E040E050E00E9433628823ED
:104AD00024F410928B061092AB0EE091AF02F0918D
:104AE000B002638574858585968520E030E040E7D7
:104AF00051E40E947264181614F480E001C081E051
:104B0000AA2061F0882351F40E94745F60931E070D
:104B100070931F078093200790932107DF91CF9117
:104B20001F910F91FF90EF90DF90CF90BF90AF90CB
:104B300008952F923F924F925F926F927F928F9241
:104B40009F92AF92BF92CF92DF92EF92FF920F931C
:104B50001F93DF93CF93CDB7DEB7A8970FB6F89426
:104B6000DEBF0FBECDBF6F8F78A389A39AA35CA3CE
:104B70004BA3FA01EE0FFF1FE155FD4F208131815C
:104B800038A72FA30E94745F6D8B7E8B8F8B988FBD
:104B9000AFA1B8A596968C9190E0959587959C01CC
:104BA000442737FD4095542F29873A874B875C87E8
:104BB0008DE295E060EC72E00E94B130E091AF02CE
:104BC000F091B0021682158280E090E0A0E0B0E0A3
:104BD00083879487A587B687E081F0E0EB55F14F96
:104BE0001082E091B102F091B202168215828387A1
:104BF0009487A587B687E081F0E0EB55F14F1082EE
:104C00003BA13093B502AFA1B8A5EC91F0E0EB5514
:104C1000F14F96968C9180832D893E894F89588DCE
:104C2000298B3A8B4B8B5C8B79018A0149855A859C
:104C30006B857C854D835E836F8378871A8E198E92
:104C40008824839460E070E080EA91E469837A8349
:104C50008B839C835B016C01AFA1B8A51296EC918C
:104C6000129711968C91853330F48233C8F48150B9
:104C7000873038F409C0813620F0843628F0843635
:104C800079F06FEF7FE013C0F0E0EE0FFF1FE65BFF
:104C9000FB4F808191816CEF7FE0681B790B07C02F
:104CA000F0E0EE0FFF1FE65BFB4F60817181EFA12B
:104CB000F8A5748363838181BCD8362E272E8DA3FB
:104CC0009EA3862F922DADA1BEA1EFA1F8A587834B
:104CD0009087A187B2870E94745F2B013C01698194
:104CE0007A818B819C81232D322D4DA15EA10E9462
:104CF0007264181644F0832D922DADA1BEA1898354
:104D00009A83AB83BC83C601B501232D322D4DA1FF
:104D10005EA10E94336287FD06C0832D922DADA156
:104D2000BEA15C016D01882009F443C0632D722D82
:104D30008DA19EA12F8D38A149A15AA10E94726414
:104D400018160CF0A3C1A30192012E193F09400BC4
:104D5000510B6BA17CA1161617062CF084EC99E080
:104D6000A0E0B0E004C08CED95E0A0E0B0E08217D8
:104D70009307A407B50708F089C1AFA1B8A5EC91C6
:104D80006E2F70E06B55714F8985BD818B1BFB01C8
:104D900080832D873E874F87588B498A5A8A6B8A32
:104DA0007C8A2F8D38A149A15AA129833A834B834C
:104DB0005C83632D722D8DA19EA12F8D38A149A1F9
:104DC0005AA10E94336288230CF05FC1A3019201B3
:104DD00069897A898B899C89261B370B480B590B6B
:104DE0008BA19CA1181619062CF488EB9BE0A0E07F
:104DF000B0E004C088E893E1A0E0B0E08217930738
:104E0000A407B50708F041C1A98DBA8DAB2B09F4F1
:104E100021C16D857E858F859889620F731F841FE0
:104E2000951F6B8F7C8F8D8F9E8F6D857E858F8577
:104E30009889621B730B840B950B2D813E814F81EA
:104E400058850E941D662B8D3C8D4D8D5E8D0E9478
:104E50005E6689859A85AB85BC85280F391F4A1FF8
:104E60005B1F24313105410551054CF424E130E04C
:104E700040E050E029873A874B875C8718C0AFA194
:104E8000B8A596968C9190E044977C010027F7FC9A
:104E90000095102F29873A874B875C87E216F30627
:104EA0000407150724F4E986FA860B871C87EFA10F
:104EB000F8A526A1822F869590E0A0E0B0E0498574
:104EC0005A856B857C8584179507A607B7072CF054
:104ED0004D835E836F83788714C0822F90E00197A3
:104EE0009C01442737FD4095542F69857A858B8531
:104EF0009C85261B370B480B590B2D833E834F8314
:104F000058878DE295E068EB72E049855A850E94EA
:104F10009F308DE295E063EB72E04D815E810E94EF
:104F20009F308DE295E06CEA72E0A601950102E007
:104F30000E9437378DE295E065EA72E029813A8177
:104F40004B815C810E941C37898D9A8D03970CF4EC
:104F500081C06D817E818F8198850E94066320E0EB
:104F600030E040E850E40E9447657B018C01698194
:104F70007A818B819C81A60195010E94596120ED67
:104F80003FE049E450E40E9447659B01AC01C80141
:104F9000B7010E943A626B017C016B8D7C8D8D8D17
:104FA0009E8D0E94066320E030E04AE754E40E94B0
:104FB0003A624B015C018DE295E06FE972E0A70176
:104FC000960102E00E9437378DE295E069E972E0D0
:104FD000A50194010E941C37C701B6012AE939E9ED
:104FE00049E15FE30E9447656B017C018DE295E03A
:104FF0006CE872E00E94B1308DE295E066E872E004
:10500000A70196010E941C37C701B601A7019601AE
:105010000E945A61A50194010E943A629B01AC0171
:105020008DE295E060E872E00E941C37C701B6018E
:10503000A50194010E94476520E030E040E05EE376
:105040000E9447659B01AC018DE295E06AE772E042
:105050000E941C37AFA1B8A5EC912E2F30E02B5544
:10506000314F8D81B9858B0FF9018083298D3A8D60
:105070002F5F3F4F3A8F298F83017201AF8CB8A009
:10508000C9A0DAA08824839401C088246F8D78A1F8
:1050900089A19AA120E030E040EA51E40E945A61DF
:1050A0009B01AC01632D722D8DA19EA10E947264A3
:1050B00018162CF48DE295E061E572E03CC0D30156
:1050C000C2014D895E896F89788D841B950BA60B73
:1050D000B70B895E9340A040B04030F00E94904EE4
:1050E0004D8A5E8A6F8A788E440C551C661C771C2C
:1050F00069897A898B899C89461A570A680A790ACC
:105100004E185F08600A710A71E847167FE4570677
:1051100072E1670670E0770628F08DE295E064E3BF
:1051200072E009C0898D9A8D06970CF495CD8DE2B9
:1051300095E063EE71E00E94B130E091AF02F09132
:10514000B0021682158280E090E0A0E0B0E0838794
:105150009487A587B687E081F0E0EB55F14F108288
:10516000E091B102F091B202168215828387948792
:10517000A587B687E081F0E0EB55F14F10828FEF05
:105180008093B502A8960FB6F894DEBF0FBECDBFD0
:10519000CF91DF911F910F91FF90EF90DF90CF9013
:1051A000BF90AF909F908F907F906F905F904F9047
:1051B0003F902F900895E0913603F091370360E01F
:1051C0008685882309F461E085850C941C5E2F9206
:1051D0003F924F925F926F927F928F929F92AF9287
:1051E000BF92CF92DF92EF92FF920F931F93DF93C4
:1051F000CF93CDB7DEB72E970FB6F894DEBF0FBEB4
:10520000CDBF20913603309137038091A406909151
:10521000A506A091A606B091A706F901838F948FE9
:10522000A58FB68FD90111968D919D910D90BC914E
:10523000A02D8D839E83AF83B887D90115968D915C
:105240009D910D90BC91A02D89839A83AB83BC83E3
:1052500080E092E0909337038093360380910102BF
:1052600090910202A0910302B09104022D813E812F
:105270004F815885281B390B4A0B5B0B2D833E83CE
:105280004F8358878091050290910602A0910702F2
:10529000B091080229813A814B815C81281B390B2E
:1052A0004A0B5B0B29833A834B835C838091A40672
:1052B0009091A506A091A606B091A7068093B4068A
:1052C0009093B506A093B606B093B7066090090216
:1052D00070900A0280900B0290900C026092C302C0
:1052E0007092C4028092C5029092C60260E070E0A3
:1052F00080E89FE3A40193010E943A6260935D06F7
:1053000070935E0680935F069093600680910F0213
:1053100090911002A0911102B09112028B879C878C
:10532000AD87BE878093D3029093D402A093D50219
:10533000B093D6026091130270911402809115020D
:10534000909116020E94D3626093FF027093000353
:1053500080930103909302036093EF027093F00235
:105360008093F1029093F2020E940663A4019301DC
:105370000E9447650E94D86260936D0670936E0626
:1053800080936F069093700660937D0670937E06FF
:1053900080937F0690938006209017023090180229
:1053A0004090190250901A02C201B10120E030E091
:1053B00040E852E40E944765A40193010E944765BA
:1053C0009B01AC0160E074E284E79BE40E943A62D6
:1053D0000E9441630E94D8626A87609384066B854D
:1053E0007C858D859E8520E030E040E852E40E9477
:1053F0004765A40193010E9447659B01AC0160E0F1
:1054000074E284E79BE40E943A620E9441630E9436
:10541000D86260938506603118F08FE0809385062E
:10542000909185069987AA859A1718F0A09385060A
:105430006AC0A0901302B0901402C0901502D090E0
:1054400016026B857C858D859E859B01AC010E9433
:10545000476521E530EA41E159E30E944765A6012D
:1054600095010E943A627B018C01C201B101A20147
:1054700091010E94476520E030E040E05FEB0E9430
:105480004765A60195010E943A629B01AC01C801E3
:10549000B7010E945A61A40193010E9447657B01F4
:1054A0008C01BA856B2F70E0E9856E1B7109882726
:1054B00077FD8095982F0E9406639B01AC01C8017F
:1054C000B7010E943A620E9420627B018C0120E0B9
:1054D00030E040E85FE30E943362882314F461E027
:1054E00010C0C801B70120E030E04FE753E40E944C
:1054F0007264181614F46FEF04C0C801B7010E945B
:10550000D862609386066091850670E080E090E046
:105510000E94046320E030E040E852E40E944765C6
:10552000A40193010E9447659B01AC0160E074E215
:1055300084E79BE40E943A6220E030E040E752E4D6
:105540000E9447657B018C012B853C854D855E85DE
:105550000E943362882344F4E092D302F092D40292
:105560000093D5021093D60289E292E00E94CA1EEF
:10557000E090C406F090C5060091C6061091C706DB
:10558000E0913603F0913703A184B284C384D484BC
:10559000C801B701A60195010E9447650E94D36228
:1055A0004B017093BD066093BC06C801B701209102
:1055B000C8063091C9064091CA065091CB060E9498
:1055C0005A61A60195010E9447650E94D3627093BB
:1055D000BF066093BE068091CC06823028F41092FC
:1055E000D2061092D1062DC0B401882777FD809590
:1055F000982F0E9406637B018C0117FB109517F909
:10560000109560E070E088EC92E42091CD06309136
:10561000CE064091CF065091D0060E9459619B0161
:10562000AC01C801B7010E9447652AE037ED43E2AB
:105630005CE30E9447650E94D3627093D206609338
:10564000D1062D813E814F815885211531054105B7
:10565000510549F489819A81AB81BC810097A105EC
:10566000B10509F471C06090030770900407809041
:1056700005079090060700D000D0EDB7FEB7319631
:105680002091D7023091D8024091D9025091DA028C
:10569000ADB7BEB711962D933D934D935C93149780
:1056A00081E0848385836D817E818F8198852981C6
:1056B0003A814B815C81EE24FF248701AA24BB241C
:1056C00065010E94BD1D8091130790911407A09160
:1056D0001507B09116072D813E814F815885280FFF
:1056E000391F4A1F5B1F2093130730931407409301
:1056F0001507509316078091170790911807A091EE
:105700001907B0911A0729813A814B815C81280FD2
:10571000391F4A1F5B1F20931707309318074093C8
:10572000190750931A07609203077092040780923A
:105730000507909206074DB75EB74A5F5F4F0FB6F9
:10574000F8945EBF0FBE4DBF2E960FB6F894DEBF25
:105750000FBECDBFCF91DF911F910F91FF90EF90C2
:10576000DF90CF90BF90AF909F908F907F906F9081
:105770005F904F903F902F9008952F923F924F92BD
:105780005F926F927F928F929F92AF92BF92CF92D1
:10579000DF92EF92FF920F931F93DF93CF93CDB7DA
:1057A000DEB7A2970FB6F894DEBF0FBECDBF8D8FC8
:1057B0009E8F7A8B698B5C8B4B8B0D8B1E8B2F8B0B
:1057C000388FC98EDA8EEB8EFC8E14012501A8ACC1
:1057D000B9ACCAACDBAC6CAC7DAC8EAC9FACC601DA
:1057E000B50120E030E040E050E00E9433628823C1
:1057F00069F46D867E868F86988A80E090E0A0EAC4
:10580000B0E489879A87AB87BC8726C0C601B501FB
:10581000A40193010E945A617B018C01C601B5016C
:1058200020E030E040EA50E40E944765A80197017B
:105830000E943A6269877A878B879C87C401B3018B
:10584000A60195010E944765A80197010E943A624E
:105850006D877E878F87988BED88FE880F89188DDE
:1058600017FB109517F91095C201B10123E333E935
:1058700048E853E40E945A619B01AC01C801B7019A
:105880000E943A620E94A7629B01AC01698D7A8DE9
:105890008B8D9C8D0E9447656D837E838F83988757
:1058A0006B897C89A989BA896A1B7B0B882777FD5C
:1058B0008095982F0E94066320E030E040E05DE391
:1058C0000E94476569837A838B839C832D8D3E8DEF
:1058D000C9013C01882499248B899C89AA2797FDBA
:1058E000A095BA2F8F8F98A3A9A3BAA36F8D78A183
:1058F00089A19AA10E9406637B018C01B4018827CB
:1059000077FD8095982F0E94066329813A814B810B
:105910005C810E9447659B01AC01C801B7010E94F0
:1059200059611B012C0123E333E548E853E40E944D
:105930005A619B01AC016D897E898F89988D0E9487
:105940003A620E94A7622D813E814F8158850E9454
:1059500047657B018C0120E030EC4FE755E40E9465
:10596000476529853A854B855C850E9447655B01C3
:105970006C016D857E858F859889A80197010E94AD
:105980005A6120E030E040EA50E40E9447659B0104
:10599000AC01C601B5010E943A620E94D362CB01FC
:1059A000AFE06D3F7A0714F08CEF9FE0F301918335
:1059B0008083C201B10120E030E040E051E40E9468
:1059C00047650E94D362D30113967C936E9312971E
:1059D0000894811C911CE4E0F0E06E0E7F1EF1E261
:1059E0008F16910409F082CFA2960FB6F894DEBF0D
:1059F0000FBECDBFCF91DF911F910F91FF90EF9020
:105A0000DF90CF90BF90AF909F908F907F906F90DE
:105A10005F904F903F902F9008954F925F926F92BA
:105A20007F928F929F92AF92BF92CF92DF92EF922E
:105A3000FF920F931F9380E092E09093370380933F
:105A400036038DB79EB708970FB6F8949EBF0FBE6A
:105A50008DBF80E090E0A0E0B0E0EDB7FEB78183BD
:105A60009283A383B4830F2EF0E04F2EF0EE5F2ECF
:105A7000F2E96F2EF5E47F2EF02DADB7BEB7159687
:105A80004D925D926D927C92189788E393E066EF59
:105A90007FEF4CE251E000E010E928E735E40F2EFB
:105AA000F0E0CF2EF0E5DF2EF3ECEF2EF7E4FF2E43
:105AB000F02D0F2EF0E08F2EF0E09F2EF8ECAF2EA1
:105AC000F1E4BF2EF02D59DE80E090E0A0E0B0E0E0
:105AD000EDB7FEB781839283A383B483ADB7BEB71E
