:100000000C949D0A0C94CA0A0C94CA0A0C94CA0A4D
:100010000C94CA0A0C94CA0A0C94CA0A0C94CA0A10
:100020000C94CA0A0C94CA0A0C94CA0A0C94CA0A00
:100030000C94CA0A0C94CA0A0C94CA0A0C94CA0AF0
:100040000C94CA0A0C946C5D0C94CA0A0C94CA0AEB
:100050000C94CA0A0C9422540C9495540C94327843
:100060000C94CA0A0C945D320C9495320C94CA0A12
:100070000C94CA0A0C94CA0A0C94CA0A0C94CA0AB0
:100080000C94CA0A0C94CA0A0C94CA0A0C94CA0AA0
:100090000C94CA0A0C94CA0A0C94CA0A0C94CA0A90
:1000A0000C94CA0A0C94CA0A0C94CA0A0C94CA0A80
:1000B0000C94CA0A0C94CA0A0C94CA0A0C94CA0A70
:1000C0000C94CA0A0C94CA0A0C94CA0A0C94CA0A60
:1000D0000C94CA0A0C94CA0A0C94CA0A0C94CA0A50
:1000E0000C94CA0A084AD73B3BCE016E84BCBFFDC4
:1000F000C12F3D6C74319ABD56833DDA3D00C77FF8
:1001000011BED9E4BB4C3E916BAAAABE0000008090
:100110003F07634236B79BD8A71A39685618AEBA5C
:10012000AB558C1D3CB7CC5763BD6DEDFD753EF6F0
:10013000177231BF000000803F05A84CCDB2D44EED
:10014000B93836A9020C50B9918688083CA6AAAAEB
:100150002ABE000000803F4D313230205335205000
:10016000350A4D31313720457874727564657220D7
:1001700031000000025072696E74657220736574FC
:1001800020696E746F206472792072756E206D6FB5
:10019000646520756E74696C207265737461727425
:1001A00021003A20776F726B696E67003A207465A0
:1001B0006D702073656E736F72206465666563741D
:1001C0000065787472756465722000686561746595
:1001D0006420626564002000200020004D54454DDD
:1001E000503A00504944204175746F74756E652013
:1001F00066696E6973686564202120506C6163656F
:1002000020746865204B702C204B6920616E64203F
:100210004B6420636F6E7374616E747320696E201B
:1002200074686520636F6E66696775726174696F63
:100230006E2E6800504944204175746F74756E6568
:10024000206661696C6564212074696D656F7574E1
:1002500000504944204175746F74756E6520666165
:10026000696C6564212054656D7065726174757286
:100270006520746F206869676800204B643A20002D
:10028000204B693A2000204B703A200020436C61DB
:100290007373696320504944002054753A2000204C
:1002A0004B753A2000206D61783A2000206D696E10
:1002B0003A200020643A200020626961733A2000ED
:1002C000504944204175746F74756E652073746174
:1002D0007274001C151C1414221CE0035004A404A6
:1002E00014056405B4053C06546172676574426583
:1002F000643A00496620796F75206E6565642061F7
:10030000206869676865722074656D7065726174D4
:100310007572652C20796F75276C6C206861766525
:1003200020746F206368616E676520796F75722035
:100330006669726D7761726520636F6E6669677555
:10034000726174696F6E2E005461726765742074F7
:10035000656D706572617475726520657863656539
:100360006473204845415445445F4245445F4D41D4
:10037000585F54454D503D003A00546172676574B2
:1003800045787472004E4F5420494D504C454D45B0
:100390004E54454421204368616E67696E6720684A
:1003A0006561746564206265642073656E736F7245
:1003B000207479706520746F20003A206368616E44
:1003C00067696E672073656E736F722074797065EC
:1003D00020746F2000457874727564657220230064
:1003E0000000A00F5C006009690010097900C008D6
:1003F0008C007008A2002008BD00D007DE00800736
:10040000050130073401E0066D019006B201400697
:100410000702F0056D02A005E80250057B03000508
:100420002B04B004F8046004EB06C0033509200374
:100430007F0B8002650DE001B00E40011D0FF00042
:10044000480FC8006C0FA000ED0F60FFFE0F48FEC4
:100450000400801AD8009808AC01200780025006DA
:100460005403C80528045805FC040005D005B00451
:10047000A4066804780728044C08E8032009B003A0
:10048000F4097003C80A38039C0BF802700CB00220
:10049000440D6802180E0802EC0E8801C00F880097
:1004A000F00F00000400001B5400600964001009F4
:1004B0007400C008840070089C002008B800D007B1
:1004C000D8008007000130072C01E0066801900683
:1004D000AC0140060002F0056802A005E0025005EC
:1004E000740300052404B004F0046004DC05100467
:1004F000E406C0030408700330092003780B80026F
:10050000600DE001A80E4001680FA000C00F0000C0
:10051000E80F60FF0400700DD8004804AC015803D8
:100520008002D8025403800228043802FC0400022E
:10053000D005C801A4069801780770014C0848014D
:1005400020091801F409F000C80AC8009C0BA0009B
:10055000700C7000440D3800180E0000EC0EA8FF5F
:10056000C00FE8FE0400E814D800A005AC01600448
:100570008002B803540340032804E802FC049802F4
:10058000D0055802A40620027807E8014C08B801FB
:1005900020098001F4095001C80A20019C0BE800E1
:1005A000700CB000440D7000180E2800EC0EC8FF4F
:1005B000C00FE8FE0000A00F5C005F096900210980
:1005C0007900DF088C009B08A2005708BD000F08C7
:1005D000CC005C07CC005C07DC003B07F4000F0795
:1005E0000001FA062001C7063401AA06500185065B
:1005F0006C016206B40115060402CC056C027D058F
:10060000A4025805E002340528030B055003F70443
:1006100020049804EB06C003350920037F0B8002F9
:10062000650DE001B00E40011D0FF000480FC8003D
:100630006C0FA000ED0F60FFFE0F48FE0000A00F42
:100640005C005F09690021097900DF088C009B08C4
:10065000A2005708BD000F08DE00C4070501790796
:1006600034012C076D01DD06B2018C060702380645
:100670006D02E505E80291057B033D052B04E904C5
:10068000F8049704EB06C003350920037F0B8002B2
:10069000650DE001B00E40011D0FF000480FC800CD
:1006A0006C0FA000ED0F60FFFE0F48FE20520020EF
:1006B0004A002049002050002053002046002045D9
:1006C00000205A002059002058004572726F723A7B
:1006D0002057726F6E6720636865636B73756D205A
:1006E000004572726F723A42696E61727920636D71
:1006F000642077726F6E6720636865636B73756DD6
:100700002E0077616974004563686F3A006F6B0073
:100710006F6B00736B6970200020676F7420004559
:1007200072726F723A206578706563746564206CCC
:10073000696E6520006F6B006F6B00526573656EAC
:10074000643A006572726F723A00494E46004E413B
:100750004E00616476616E6365204C205B303D6FB6
:1007600066665D0065787472756465722073656E87
:10077000736F722074797065006578747275646542
:100780007220636F6F6C6572207370656564205BA7
:10079000302D3235355D0064697374616E63652098
:1007A000746F2072657472616374207768656E205F
:1007B00068656174696E67205B6D6D5D0074656D61
:1007C000702E20666F722072657472616374696F37
:1007D0006E207768656E2068656174696E67205B5E
:1007E000435D0074656D702E2073746162696C697D
:1007F0007A652074696D65205B735D00592D6F66A5
:1008000066736574205B73746570735D00582D6F3B
:100810006666736574205B73746570735D00504920
:1008200044206D61782076616C7565205B302D32D7
:1008300035355D0050494420442D6761696E005094
:10084000494420492D6761696E0050494420502D6C
:100850006761696E00504944206472697665206D55
:10086000696E00504944206472697665206D617834
:100870000068656174206D616E61676572205B3030
:100880002D315D00616363656C65726174696F6EC3
:10089000205B6D6D2F735E325D0073746172742026
:1008A0006665656472617465205B6D6D2F735D00B4
:1008B0006D61782E206665656472617465205B6D7C
:1008C0006D2F735D00737465707320706572206D99
:1008D0006D0042656420504944206D617820766146
:1008E0006C7565205B302D3235355D0042656420C6
:1008F00050494420442D6761696E00426564205070
:10090000494420492D6761696E0042656420504961
:100910004420502D6761696E00426564205049444F
:10092000206472697665206D696E004265642050AE
:100930004944206472697665206D6178004265647F
:100940002048656174204D616E61676572205B307F
:100950002D325D004F50532072657472616374696B
:100960006F6E206261636B6C617368205B6D6D5D9F
:10097000004F50532072657472616374696F6E200A
:100980006C656E677468205B6D6D5D004F50532021
:100990006D696E2E2064697374616E636520666F85
:1009A000722066696C2E2072657472616374696F5F
:1009B0006E205B6D6D5D004F5053206D6F7665202E
:1009C0006166746572207825207265747261637443
:1009D000205B255D004F5053206F70657261746914
:1009E0006F6E206D6F6465205B303D4F66662C3105
:1009F0003D436C61737369632C323D466173745D72
:100A0000005A2D617869732074726176656C20617B
:100A10006363656C65726174696F6E205B6D6D2FC9
:100A2000735E325D00592D6178697320747261764E
:100A3000656C20616363656C65726174696F6E20BB
:100A40005B6D6D2F735E325D00582D617869732088
:100A500074726176656C20616363656C6572617444
:100A6000696F6E205B6D6D2F735E325D005A2D6174
:100A700078697320616363656C65726174696F6E18
:100A8000205B6D6D2F735E325D00592D6178697347
:100A900020616363656C65726174696F6E205B6D64
:100AA0006D2F735E325D00582D617869732061632C
:100AB00063656C65726174696F6E205B6D6D2F7319
:100AC0005E325D005A206261636B6C617368205B0B
:100AD0006D6D5D0059206261636B6C617368205BB2
:100AE0006D6D5D0058206261636B6C617368205BA3
:100AF0006D6D5D005A206D6178206C656E6774685D
:100B0000205B6D6D5D0059206D6178206C656E67AE
:100B10007468205B6D6D5D0058206D6178206C6598
:100B20006E677468205B6D6D5D005A20686F6D653F
:100B300020706F73205B6D6D5D005920686F6D656F
:100B400020706F73205B6D6D5D005820686F6D6560
:100B500020706F73205B6D6D5D004D61782E205AA3
:100B60002D6A65726B205B6D6D2F735D004D617832
:100B70002E206A65726B205B6D6D2F735D005A2DA0
:100B80006178697320686F6D696E6720666565645A
:100B900072617465205B6D6D2F735D00592D6178F6
:100BA000697320686F6D696E672066656564726140
:100BB0007465205B6D6D2F735D00582D61786973CE
:100BC00020686F6D696E6720666565647261746523
:100BD000205B6D6D2F735D005A2D61786973206DF8
:100BE00061782E206665656472617465205B6D6D49
:100BF0002F735D00592D61786973206D61782E2007
:100C00006665656472617465205B6D6D2F735D0050
:100C1000582D61786973206D61782E206665656452
:100C200072617465205B6D6D2F735D005A2D617864
:100C3000697320737465707320706572206D6D0028
:100C4000592D6178697320737465707320706572B3
:100C5000206D6D00582D6178697320737465707311
:100C600020706572206D6D0053746F702073746511
:100C70007070657220616674657220696E6163745C
:100C80006976697479205B6D732C303D6F66665DA3
:100C9000004D61782E20696E6163746976652074F9
:100CA000696D65205B6D732C303D6F66665D00502D
:100CB00072696E74657220616374697665205B7316
:100CC0005D0046696C616D656E74207072696E744A
:100CD0006564205B6D5D00426175647261746500DE
:100CE000416464696E672066696C616D656E743A13
:100CF0000050726F746F636F6C2076657273696FEA
:100D00006E206368616E6765642C20757067726120
:100D100064696E67004550523A3020004550523A9F
:100D20003120004550523A3220004550523A33208B
:100D300000457874722E00424C4B2000000020A128
:100D400090D00A8B48E8A0868545041724F403D97F
:100D500050C38EB1C2A23D96828B3582127AE37265
:100D6000816CCB66A861015DC758EB546151204E80
:100D70001E4B5648C14559431A41013F093D2F3B7F
:100D80007139CD374036C93465331432D430A32F8E
:100D9000802E6B2D632C672B752A8E29B028DC27BB
:100DA00010274B268F25D9242B248223E02243228F
:100DB000AC211A218D200420801F001F841E0C1ED0
:100DC000971D261DB81C4E1CE61B821B201BC11A3A
:100DD000641A0A1AB2195D190A19B9186A181C1886
:100DE000D11788174017FA16B51673163116F11574
:100DF000B31576153A150015C7148F14581422141C
:100E0000EE13BA13881356132513F612C71299124C
:100E10006C1240121512EB11C1119811701148118A
:100E20002111FB10D610B1108D106910461024103E
:100E30000210E10FC00FA00F800F610F420F230FB0
:100E4000060FE80ECB0EAF0E930E770E5C0E410E22
:100E5000270E0D0EF30DDA0DC10DA80D900D780DB6
:100E6000600D490D320D1B0D050DEF0CD90CC30C97
:100E7000AE0C990C850C700C5C0C480C350C210CDC
:100E80000E0CFB0BE80BD60BC40BB20BA00B8E0B9E
:100E90007D0B6B0B5A0B4A0B390B290B180B080BEC
:100EA000F80AE90AD90ACA0ABB0AAC0A9D0A8E0ADC
:100EB000800A710A630A550A470A390A2C0A1E0A6F
:100EC000110A040AF709EA09DD09D009C409B709BA
:100ED000AB099F09920987097B096F0963095809C2
:100EE0004C09410936092B09200915090A0900098D
:100EF000F508EB08E008D608CC08C208B808AE0828
:100F0000A4089A08900887087D0874086B0861088F
:100F100058084F0846083D0834082C0823081A08CA
:100F2000120809080108F807F007E807E007D807E2
:100F3000D007C807C007B807B007A807A107000077
:100F4000420FA1071605D0030D038B022E02E80104
:100F5000B2018601630145012C0117010401F4006F
:100F6000473238205A0A47323820580A4731205829
:100F7000313030204631303030300A473238205955
:100F80000A47312059313030204631303030300A74
:100F90004731205A3535204631303030300A005341
:100FA0006F6674776172652052657365740057616E
:100FB000746368646F672052657365740042726F72
:100FC000776E206F75742052657365740045787470
:100FD00065726E616C20526573657400506F776541
:100FE00072557000454550524F4D206D6F64653A03
:100FF000200052657065746965724677204D4D32E8
:1010000020323031332D31302D31350A687474700F
:10101000733A2F2F6769746875622E636F6D2F4D59
:101020006574616D617175696E612F52657065746B
:101030006965722D4669726D776172652F7472658C
:10104000652F4D4D325F323031335F31305F313596
:101050000073746172740000000100250030001DEF
:10106000000C001800240031001C000B00170023A6
:10107000002F001B000A001E000D000400090007DD
:1010800000080022002B001A00410042000000016D
:10109000003500556E6B6E6F776E20636F6D6D61FE
:1010A0006E643A00454550524F4D2075706461742E
:1010B0006564004D65617375726564206F72696760
:1010C000696E207365742E204D6561737572656D50
:1010D000656E742072657365742E004D656173755D
:1010E000726520286D6D29203D004D656173757214
:1010F000652028537465707329203D004D65617328
:101100007572656D656E742072657365742E00531B
:101110006574204D6963726F7374657070696E6772
:1011200000436F6E66696775726174696F6E2072D5
:101130006573657420746F2064656661756C747383
:101140002E00436F6E66696775726174696F6E20F9
:101150006C6F616465642066726F6D204545505206
:101160004F4D2E00436F6E66696775726174696FCB
:101170006E2073746F72656420746F204545505201
:101180004F4D2E006C696E656172204C3A002C2028
:101190006D6F7665206166746572203D20002C209D
:1011A0006261636B736C617368203D20002C207258
:1011B000657472616374203D20006D696E206469FE
:1011C0007374616E6365203D20004F50532066614B
:1011D0007374206D6F64653A004F505320636C61E7
:1011E00073736963206D6F64653A004F50532064D8
:1011F000697361626C6564002C2073706565643D81
:1012000000206C696E6561722073746570733A00BA
:10121000205A4A65726B3A004A65726B3A004C205C
:10122000004820007A5F6D61783A004C2000482029
:10123000007A5F6D696E3A004C2000482000795FAB
:101240006D61783A004C2000482000795F6D696E2E
:101250003A004C2000482000785F6D61783A004CDD
:101260002000482000785F6D696E3A00206D696E3D
:101270000020686F7572732000206461797320000C
:101280005072696E74696E672074696D653A0020EA
:101290006D005072696E7465642066696C616D657D
:1012A0006E743A004649524D574152455F4E414D8A
:1012B000453A52657065746965725F302E3830202A
:1012C0004649524D574152455F55524C3A687474E5
:1012D00070733A2F2F6769746875622E636F6D2F74
:1012E0004D6574616D617175696E612F52657065D0
:1012F000746965722D4669726D776172652F205031
:10130000524F544F434F4C5F56455253494F4E3AFC
:10131000312E30204D414348494E455F5459504588
:101320003A4D6574616DC3A17175696E612032209B
:1013300045585452554445525F434F554E543A31E7
:101340002052455045544945525F50524F544F43E7
:101350004F4C3A320020746F2000536574206F7533
:101360007470757420006572726F723A20496E76DF
:10137000616C696420617263002C0045313A200081
:101380002C0045303A20002C005A3A20002C0059FD
:101390003A20002C00583A20004D53312C4D533246
:1013A0002050696E7300466C6F774D756C74697070
:1013B0006C793A0053706565644D756C7469706C36
:1013C000793A0020403A0020423A00543A00204541
:1013D0003A00205A3A0020593A00583A00000021B9
:1013E00000240027002A002D0030003300010100F6
:1013F00000040107010A0100002200250028002B3B
:10140000002E003100340002010000050108010B2C
:1014100001000020002300260029002C002F0032AC
:10142000000001000003010601090105050505078B
:101430000508080808020202020A0A08080404044F
:10144000040101010101010101030303030303037B
:1014500003040707070C0C0C0C0C0C0C0C0202020A
:101460000206060606060606060B0B0B0B0B0B0BFD
:101470000B0102102020080810204010204080029C
:1014800001020108040201010204081020408080CA
:10149000402010080402018004020180402010084E
:1014A0000402010804020101020408102040800126
:1014B000020408102040800000090A02080B0C0DED
:1014C0000706030401000000000000000000000007
:1014D000000000000000000000000000000000000C
:1014E00000000011100F00000000000000000000CC
:1014F00000000000000000000000000000494E460F
:10150000494E4954594E414ECDCCCC3D0AD7233C8F
:1015100017B7D13877CC2B329595E6241FB14F0AF7
:10152000000020410000C84200401C4620BCBE4CC8
:10153000CA1B0E5AAEC59D74AA3411241FBECFEF2C
:10154000D1E2DEBFCDBF00E00CBF13E0A0E0B2E00F
:10155000E0E8F1E001E00BBF02C007900D92A83473
:10156000B107D9F71BBE1EE0A8E4B3E001C01D928D
:10157000A73DB107E1F715E1CAE3D5E104C0229721
:10158000FE010E947880C833D107C9F70E94F47821
:101590000C94BE800C940000A0E0B0E0E2EDFAE014
:1015A0000C948D80EC015B016115710519F0FB0154
:1015B00091838083F9908F2D90E00E947C80892B0D
:1015C000C9F7FDE2FF1621F4F990EE24E39405C07B
:1015D0002BE2F21609F4F990EE248E01015010402E
:1015E000C8016DEF74E143E050E062D2892BF9F459
:1015F0008E010E5F1F4FC80160E075E145E050E0CD
:1016000057D2892B19F48E01095F1F4FA114B10421
:1016100019F0F50111830083E0FC04C070E090E054
:1016200080E813C070E090E080E86FEF07C1C80168
:1016300065E075E143E050E03BD2892B69F4A114E9
:10164000B10429F470E090E080EC6FE7F7C02296D7
:10165000F501D183C083F6CF8824992440E050E07F
:1016600060E070E0EF2DE053EA30A0F5F2E0EF2A01
:101670008E2D90E09C0128703070E2FE06C0232B76
:1016800079F50894811C911C2BC0232B19F0089428
:1016900081089108DB01CA0112E0880F991FAA1F77
:1016A000BB1F1A95D1F7480F591F6A1F7B1F440FA4
:1016B000551F661F771F4E0F511D611D711D483943
:1016C00029E9520729E9620729E1720748F084E015
:1016D000E82A06C0EE3F31F4E3FC39C098E0E92A7D
:1016E000F990C0CFE53311F0E53189F529912D321C
:1016F00019F4E0E1EE2A05C02B3219F081E090E008
:1017000003C0299182E090E0E22FE053EA3018F024
:10171000C81BD90B1CC020E030E0FCE020383F079C
:101720005CF4C901880F991F880F991F280F391F72
:10173000220F331F2E0F311DE991E053EA3068F379
:10174000E4FE03C0309521953F4F820E931ECE2CB0
:10175000DD24E1FE07C0A114B10421F02197F501B9
:10176000D183C083CB01BA010E94ED7C7B018C0147
:10177000F3E0CF22DD2423E0C216D10421F417FBCD
:10178000109517F9109557016801C801B70120E0BD
:1017900030E040E050E00E941C7C882309F44AC0FD
:1017A00097FE0DC02CE1E22E25E1F22E909481945B
:1017B00091089394C0E2D0E000E010E012C094E3FE
:1017C000E92E95E1F92EF6CFF70125913591459156
:1017D0005491C601B5010E94307F5B016C018C1AE7
:1017E0009D0A8C169D0684F7D595C7950F5F1F4FF0
:1017F0000630110529F08CEF9FEFE80EF91EF1CFAE
:10180000C501D6017C018D018C2D880F8D2D881F7F
:101810008F3F51F0C601B50120E030E040E050E0DC
:101820000E941C7C882331F482E290E09093D60ED3
:101830008093D50E7E2D9F2D802F612F272F392F3E
:10184000482F562FB901CA01CDB7DEB7ECE00C9492
:10185000A9802F923F925F926F927F928F929F9278
:10186000AF92BF92CF92DF92EF92FF920F931F93AE
:10187000CF93DF938C011B01EA016115710519F00B
:10188000FB0191838083209749F0CE0102978397D3
:1018900028F020E030E040E050E0F6C0F801A190F0
:1018A0008F018A2D90E00E947C80892BB9F7FDE2A0
:1018B000AF1631F4F801A1908F015524539407C05D
:1018C000FBE2AF1619F4F801A1908F01552420977F
:1018D00019F0C031D105C1F4F0E3AF1679F4F80185
:1018E0008081883711F0883549F4F801A1800E5FB6
:1018F0001F4FF2E05F2AC0E1D0E006C0209721F43C
:1019000080E3A816E9F427C0C830D10531F1C93009
:10191000D10524F4C230D10531F50CC0CA30D1054F
:1019200089F0C031D105F9F4C12CD12CE12CB8E0FB
:10193000FB2E28C0C12CD12CE12CA0E4FA2E22C011
:10194000CAE0D0E0FCECCF2EFCECDF2EFCECEF2E5E
:10195000FCE0FF2E17C0C8E0D0E0C12CD12CE12C58
:10196000E0E1FE2E0FC09E01442737FD4095542F25
:1019700060E070E080E090E80E943980C901DA01FF
:101980006C017D0120E030E040E050E060E03E018D
:10199000882477FC8094982C70EDB72EBA0CE9E07F
:1019A000EB1570F48A2D81548A3118F499ECB92E14
:1019B00006C08A2D81568A3150F589EAB82EBA0CB4
:1019C0008B2D90E08C179D0714F56F3FE1F0C21648
:1019D000D306E406F506B0F0CA01B901A4019301EB
:1019E0000E9406809B01AC012B0D311D411D511D34
:1019F0002130F0E03F07F0E04F07F0E85F0710F418
:101A000061E001C06FEFF801A1908F01C5CF2114F3
:101A1000310481F0662331F001501040F10111834F
:101A2000008308C051FE1AC002501040F10111831A
:101A3000008314C067FF12C050FC05C02FEF3FEFBA
:101A40004FEF5FE704C020E030E040E050E882E282
:101A500090E09093D60E8093D50E16C050FE08C02D
:101A600050954095309521953F4F4F4F5F4F0CC09B
:101A700057FF0AC082E290E09093D60E8093D50E75
:101A80002FEF3FEF4FEF5FE7B901CA01DF91CF9131
:101A90001F910F91FF90EF90DF90CF90BF90AF908C
:101AA0009F908F907F906F905F903F902F900895C0
:101AB000FB01DC014150504088F08D9181341CF0D5
:101AC0008B350CF4805E659161341CF06B350CF441
:101AD000605E861B611171F3990B0895881BFCCF22
:101AE000FC018191861721F08823D9F79927089561
:101AF0003197CF0108952F923F924F925F926F924C
:101B00007F928F929F92AF92BF92CF92DF92EF928D
:101B1000FF920F931F93CF93DF93EC01898180FD98
:101B2000E2C08E8180FDDFC0ED96E880F9800A81F9
:101B30001B81ED97FE01E35BFF4FC801B7012081D8
:101B40003181428153810E94307F3B014C015BE631
:101B5000252E312C2C0E3D1EC759DF4F4880598051
:101B6000B20180E090E00E94ED7C5B016C01A097E7
:101B7000C801B701288139814A815B810E94307F89
:101B80009B01AC01C601B5010E94307F0E94C17C5F
:101B90007B018C01F10171836083A496C601B501BC
:101BA000A40193010E94307F0E94C17C3B014C0143
:101BB00079836883CD56D040C201889F5001999F98
:101BC0006001899F8827B00CC11CD81EB00CC11CB5
:101BD000D81E11249701229FC001339FD001239F5B
:101BE0002227900DA11DB21F900DA11DB21F11241F
:101BF0004DE5442E512C4C0E5D1EA6019501281B6F
:101C0000390B4A0B5B0BCA01B901CF59DF4FE88092
:101C1000F9800A811B81EE0CFF1C001F111FA80117
:101C200097010E94398049010894811C911CF2019E
:101C3000918280829301229FC001339FD001239F14
:101C40002227900DA11DB21F900DA11DB21F1124BE
:101C5000A81AB90ACA0ADB0AC601B501A801970188
:101C60000E9439802F5F3F4F3A932A93280D391DE8
:101C70002697488159816A817B81C955D040C90125
:101C8000A0E0B0E084179507A607B70748F12E5FDC
:101C90003F4FC901A0E0B0E0841B950BA60BB70B2A
:101CA000B695A795979587959C018815990530F469
:101CB000881A990AF2019182808203C0F20111828E
:101CC0001082FE01E15AFF4F4081518124173507F0
:101CD00028F4421B530B5183408302C011821082AF
:101CE0008E8181608E83DF91CF911F910F91FF9044
:101CF000EF90DF90CF90BF90AF909F908F907F90AC
:101D00006F905F904F903F902F900895282F809173
:101D1000AB0E882309F04FC08091B70E9091B80E9A
:101D2000892B09F048C0222309F445C09091AA0EDE
:101D300085E7989FF0011124E85AF84F6D5F20E382
:101D400035E740E050E0B1E0A7E075E7B183A68356
:101D500010866083EB59FF4F208331834283538386
:101D60005293429332932293E156F040228333837D
:101D7000448355838091AA0E8F5F8093AA0E803191
:101D800010F01092AA0E9FB7F8948091AB0E8F5F5F
:101D90008093AB0E9FBF8091AA0E615020513742B5
:101DA0004040504031F0879FF0011124E85AF84F2D
:101DB000CDCF81E0089580E008952F923F924F9219
:101DC0005F926F927F928F929F92AF92BF92CF92CB
:101DD000DF92EF92FF920F931F93DF93CF93CDB7D4
:101DE000DEB762970FB6F894DEBF0FBECDBF888B0B
:101DF000282F30E03F872E8785E790E0289FA001BD
:101E0000299F500D389F500D1124485A584F5A871A
:101E100049877FB7F8946091AC0E5889651721F017
:101E20006F5F603109F460E020E030E040E050E0B6
:101E300005E710E023C0862F90E0809FF001819F8E
:101E4000F00D909FF00D1124E85AF84F8281938194
:101E5000A481B581280F391F4A1F5B1F6F5F603156
:101E600009F460E0203489E1380780E0480780E029
:101E7000580724F0888925E730E00AC09889691757
:101E8000D1F6F8CFAB85A150AB878FE0AF3F09F417
:101E90008B87BB85B61771F08B2F90E0829FF00186
:101EA000839FF00D929FF00D1124E85AF84F868120
:101EB00081FFE8CFEB85F889EF17B1F02E2F30E0E6
:101EC00085E790E0289FF001299FF00D389FF00DE5
:101ED0001124E85AF84F868181FF06C02B852F5FB9
:101EE0002B87203109F41B865B85452F50E05B83EF
:101EF0004A8385E790E0489FF001499FF00D589F85
:101F0000F00D1124E85AF84F8181806881837FBFEA
:101F10008091AB0E882309F4A2C4088901500031D6
:101F200008F00FE0802F90E09D878C8725E730E058
:101F3000829F5001839FB00C929FB00C1124A8E5A2
:101F4000B7E0AA0EBB1EF501818180FD88C48181A6
:101F50004E855F85429FF001439FF00D529FF00D2B
:101F6000112480FF03C0EA0FFB1F86C48F01085AAB
:101F7000184FD80199966D917D918D919C919C9768
:101F8000F50121A532A543A554A50E94427B6B0112
:101F90007C01D8019D966D917D918D919C91D097FA
:101FA000F50125A536A547A550A90E94427B4B0106
:101FB0005C01C701B601A70196010E94307F7B0139
:101FC0008C01C501B401A50194010E94307F9B01E1
:101FD000AC01C801B7010E94437B0E949D7F7B0139
:101FE0008C01A0901D07B0901E07C0901F07D090D5
:101FF0002007A60195010E945B7E18165CF00F2E4B
:10200000F0E02F2EF0E03F2EF0E84F2EFFE35F2EA2
:10201000F02D08C0C601B501A80197010E94237CDC
:102020001B012C0125E730E04C855D85429FF001C6
:10203000439FF00D529FF00D1124E85AF84F808510
:1020400086FD0EC08E859F85829FF001839FF00DD7
:10205000929FF00D1124E85AF84F808586FF49C001
:1020600085E790E0EE85FF85E89FD001E99FB00D00
:10207000F89FB00D1124A85AB84F2C853D85289F94
:10208000A001299F500D389F500D1124485A584FD8
:10209000D1966D917D918D919C91D497DA01D196D5
:1020A0002D913D914D915C91D4970E94427B7B0193
:1020B0008C01E89417F9A0902107B0902207C090F6
:1020C0002307D0902407C801B701A60195010E94FB
:1020D0005B7E181674F4C601B501A80197010E9431
:1020E000237C3B014C01A20191010E941C7C87FDD5
:1020F00002C04201310185E790E0EE85FF85E89F4F
:10210000D001E99FB00DF89FB00D1124A85AB84F27
:102110002C853D85289FA001299F500D389F500D8B
:102120001124485A584FD5966D917D918D919C916F
:10213000D897DA01D5962D913D914D915C91D89724
:102140000E94427B7B018C01E89417F9E0914803DF
:10215000F0914903A788B08CC18CD28CC801B7011B
:10216000A60195010E945B7E181674F4C601B501A4
:10217000A80197010E94237C5B016C01A4019301DB
:102180000E941C7C87FD02C064015301F5E7EF2E1D
:10219000F12CEC85FD85EE9D8001EF9D100DFE9DDF
:1021A000100D1124085A184FC601B501D801D9964F
:1021B0002D913D914D915C91DC970E94307F0B5B9E
:1021C0001F4FF80160837183828393832E853F853F
:1021D0002E9DF0012F9DF00D3E9DF00D1124E85A2B
:1021E000F84FA1ACB2ACC3ACD4ACA60195010E942F
:1021F0005B7E181634F4D801AD92BD92CD92DC927C
:102200001397B889EB85BE1709F4DFC185E790E025
:102210002E853F85289FF001299FF00D389FF00DF6
:102220001124EB55F84F40805180628073802090DC
:10223000DE063091B90E3C838091D2069091D30690
:10224000A091D406B091D5068D839E83AF83B887C5
:1022500089849A8498899150988B9F3F11F4AFE0BC
:10226000A88BB889EB2EFF24222009F4BDC0EC8195
:10227000EE2309F4B9C025E730E0E29E6001E39E59
:10228000D00CF29ED00C112448E557E0C40ED51EA8
:10229000D60118968C918878F4019085883899F544
:1022A000292F30E0C901887890708838910509F4A9
:1022B0009BC026FD0EC0EF5AFF4F60817181828165
:1022C00093812D813E814F8158850E945B7E181637
:1022D000ACF4D40116968C9116978C6016968C935C
:1022E00085E790E0E89EF001E99EF00DF89EF00D84
:1022F0001124E85AF84F8681826074C0F401868107
:102300008062868371C09878983809F06DC0D601D4
:1023100016968C911697826116968C93B2E02B16C6
:1023200009F05DC06091D0067091D106882777FDD5
:102330008095982F2091970630E040E050E00E9471
:102340000680E6E0660F771F881F991FEA95D1F790
:10235000F601EB5AFF4F20813181428153810E9467
:10236000398079018A0171E7672E712C6C0C7D1C14
:10237000F301E082F18202831383F601E75AFF4FF3
:1023800060817181828193810E94ED7C5B016C018F
:102390006091DF067091E0068091E1069091E2067F
:1023A0002AE037ED43E25CE30E94307F20E030E03A
:1023B00040E85FE30E94437B9B01AC01C601B5018D
:1023C0000E94237C0E94BC7C6E157F0580079107CC
:1023D00034F4D3016D937D938D939C931397F40103
:1023E000868184608683F1C025E730E0E29EF001BB
:1023F000E39EF00DF29EF00D1124E85AF84F80850F
:10240000807F803859F0D40118968C911897807F7E
:10241000803821F48681826086830FC025E730E012
:10242000E29EF001E39EF00DF29EF00D1124E85AB9
:10243000F84F368031FE08C0D40116968C9116975D
:10244000846016968C93C1C0F401818181FF05C020
:1024500041AC52AC63AC74AC13C0C301B201A30174
:1024600092010E94307FF401EF5BFF4F20813181A8
:10247000428153810E94437B0E949D7F2B013C013E
:1024800045E750E0E49E9001E59E300DF49E300D4E
:102490001124285A384F2B5B3F4FD901AD90BD9086
:1024A000CD90DC901397A554B040BA8BA98BC30193
:1024B000B201A60195010E945B7E09891A89035B1E
:1024C0001F4F88230CF44FC0F80160817181828115
:1024D0009381A60195010E941C7C882359F0FEEF90
:1024E0003F22A989BA8916963C92F801A082B1824E
:1024F000C282D38225E730E0E29EF001E39EF00D38
:10250000F29EF00D1124E356F84FA080B180C280F6
:10251000D3808401075B1F4FD8016D917D918D9110
:102520009C91A60195010E941C7C882361F0F80112
:10253000A082B182C282D382D40116968C91169762
:102540008E7F16968C9325E730E0E29EF001E39EA5
:10255000F00DF29EF00D1124E356F84F40805180AB
:102560006280738020C0D8014D925D926D927C9202
:102570001397E9E4F0E08E0E9F1ED4014D925D9218
:102580006D927C921397E7EBFFEF8E0E9F1EA98949
:10259000BA8916968C9116978E7F16968C93F401B5
:1025A00086818E7F8683F8892B85F21771F045E747
:1025B00050E0E49E4001E59E900CF49E900C1124A6
:1025C00088E597E0880E991E45CE9091AA0E9983D2
:1025D000AB85A91709F4E5C085E790E02A813B8126
:1025E000289FF001299FF00D389FF00D1124E85A23
:1025F000F84FE75BFF4FC080D180E280F380E95461
:10260000F040FA8BE98B6A2E639430E1631609F48B
:102610006624462C552445E750E0449E1001459E13
:10262000300C549E300C112488E597E0280E391E9A
:10263000A989BA8916967C90169771FE0CC0A35B87
:10264000BF4F8C9011969C9011971296AC90129758
:102650001396BC9093C0E989FA89818181FF05C0F6
:1026600081AC92ACA3ACB4AC14C0C701B601A70155
:1026700096010E94307FE989FA89EF5BFF4F208144
:102680003181428153810E94437B0E949D7F4B0197
:102690005C0109891A89035B1F4FB401C501D80188
:1026A0002D913D914D915C910E945B7EE989FA8963
:1026B000E75BFF4F1816A4F5C082D182E282F38255
:1026C000F80180809180A280B380E989FA89EB5B70
:1026D000FF4FB401C50120813181428153810E94A5
:1026E0001C7C8823B1F4A989BA8916968C91169717
:1026F000826016968C9325E730E0429EF001439E5F
:10270000F00D529EF00D1124E85AF84F8681846036
:102710008683A989BA8916968C9116978E7F2CC0CC
:10272000B6E07B2A2EEF7222A989BA8916967C928E
:10273000C082D182E282F382E5E7F0E04E9E900112
:102740004F9E300D5E9E300D1124285A384F275B66
:102750003F4FC401D501F90180839183A283B383E4
:1027600029543040F80180839183A283B383D90137
:1027700016968C911697846016968C93B9816B1679
:1027800039F03A8A298AC401D5016C017D013CCF18
:10279000F101E75BFF4FC401D50180839183A283E0
:1027A000B38365E7E62EF12CEB858E2F90E08E9DAE
:1027B00080018F9D100D9E9D100D1124085A184FF9
:1027C000C80199D9D80111968C9111978F771196DC
:1027D0008C93BB85BF5FBB87B03109F41B86EB854B
:1027E0008E2F90E08E9DF0018F9DF00D9E9DF00D3F
:1027F0001124E85AF84F8181806881838091AA0E64
:10280000FB85F81789F689859A8575D985E790E063
:102810002E853F85289FF001299FF00D389FF00DF0
:102820001124E85AF84F81818F77818362960FB621
:10283000F894DEBF0FBECDBFCF91DF911F910F91F6
:10284000FF90EF90DF90CF90BF90AF909F908F90D0
:102850007F906F905F904F903F902F90089585E705
:1028600090E04E855F85489FF001499FF00D589F8D
:10287000F00D1124E85AF84F868184608683C1CC1C
:102880002F923F924F925F926F927F928F929F9280
:10289000AF92BF92CF92DF92EF92FF920F931F936E
:1028A000DF93CF93CDB7DEB7A4970FB6F894DEBF12
:1028B0000FBECDBF4C011B012CA3FC01EF5AFF4FF3
:1028C000608171818281938120E034E244E75BE49E
:1028D0000E94307F2091150730911607409117070D
:1028E000509118070E94237C2B013C018091AB0E74
:1028F0008A30C8F5C301B20120E034E244E758E46D
:102900000E941C7C88237CF5E090AB0E60E074E2B2
:1029100084E798E4A30192010E94427B20E030E02A
:1029200040E450E40E94307F5B016C01FF24089476
:10293000E11CF11C0027F7FC0095102FC801B7011E
:102940000E94EF7C9B01AC01C601B5010E94237C73
:102950009B01AC01C301B2010E94437B2B013C01EE
:1029600021E02F8F01C01F8EC301B2010E94BC7CE9
:10297000D40112966D937D938D939C931597F401DA
:10298000E75AFF4F60817181828193810E94ED7CC3
:1029900068A379A38AA39BA3C301B20128A139A18B
:1029A0004AA15BA10E94237C0E94BC7C698B7A8B2C
:1029B0008B8B9C8BF10160817181828193819F77E8
:1029C00020E034E244E75BE40E94307F7B018C012D
:1029D00068A179A18AA19BA12091D5023091D6024C
:1029E0004091D7025091D8020E94307F9B01AC01E8
:1029F000C801B7010E94237C0E94BC7C5B016C0172
:102A000069837A838B839C83D10114966D917D9128
:102A10008D919C9117979F7720E034E244E75BE427
:102A20000E94307F7B018C0168A179A18AA19BA1C2
:102A30002091D9023091DA024091DB025091DC0200
:102A40000E94307F9B01AC01C801B7010E94237C2A
:102A50000E94BC7C6D837E838F8398876A157B057B
:102A60008C059D0514F4C601B5012B013C01898933
:102A70009A89AB89BC89481659066A067B0614F404
:102A80002C013D01D40118968C9186FF30C0F101D4
:102A900060857185828593859F7720E034E244E7E5
:102AA0005BE40E94307F7B018C0168A179A18AA13F
:102AB0009BA12091DD023091DE024091DF02509116
:102AC000E0020E94307F9B01AC01C801B7010E9467
:102AD000237C0E94BC7C5B016C0169877A878B87B1
:102AE0009C8746165706680679063CF004C019868E
:102AF0001A861B861C8663015201D1011C966D91BA
:102B00007D918D919C911F979F7720E034E244E75F
:102B10005BE40E94307F7B018C0168A179A18AA1CE
:102B20009BA12091E1023091E2024091E302509199
:102B3000E4020E94307F9B01AC01C801B7010E94F2
:102B4000237C0E94BC7C6D877E878F87988BA60133
:102B50009501A616B706C806D90614F49B01AC0168
:102B6000F401EB5AFF4FDA01C901283C3105410558
:102B7000510524F488EC90E0A0E0B0E080839183DC
:102B8000A283B383CA01B9010E94EF7C7B018C014F
:102B9000F401E75AFF4F60817181828193810E9425
:102BA000ED7C9B01AC01C801B7010E94307F7B0125
:102BB0008C0160E074E284E79BE4A80197010E9425
:102BC000237C5B016C01F4018085782E84FF26C094
:102BD00061857285838594850E94EF7C9B01AC01A1
:102BE000C801B7010E94237C0E94BC7C69837A8360
:102BF0008B839C83C601B501D1012D913D914D91EF
:102C00005C910E94307FF40161A772A783A794A70B
:102C100070FC0DC0DC01CB01B05805C080E090E035
:102C2000A0E0B0E0F40181A792A7A3A7B4A7D401C4
:102C300018968C911897782E85FF2AC01D966D9155
:102C40007D918D919C9150970E94EF7C9B01AC01EE
:102C5000C801B7010E94237C0E94BC7C6D837E83E7
:102C60008F839887C601B501F101248135814681A2
:102C700057810E94307FD4019D966D937D938D93F3
:102C80009C93D09771FC0DC0DC01CB01B05804C0FF
:102C900080E090E0A0E0B0E0F40185A796A7A7A7A8
:102CA000B0ABD40118968C911897782E86FF2AC065
:102CB00051966D917D918D919C9154970E94EF7CDE
:102CC0009B01AC01C801B7010E94237C0E94BC7C1F
:102CD00069877A878B879C87C601B501F1012085BA
:102CE0003185428553850E94307FD401D1966D9302
:102CF0007D938D939C93D49772FC0DC0DC01CB0126
:102D0000B05804C080E090E0A0E0B0E0F40181ABF6
:102D100092ABA3ABB4ABD40118967C90189777FE16
:102D20002EC055966D917D918D919C9158970E94E2
:102D3000EF7C9B01AC01C801B7010E94237C0E947B
:102D4000BC7C6D877E878F87988BC601B501F101AA
:102D500024853585468557850E94307FD401D596D8
:102D60006D937D938D939C93D89773FC08C0DC0181
:102D7000CB01B058F40185AB96ABA7ABB0AFF40173
:102D8000EF5AFF4F6081718182819381A601950185
:102D90000E94307FD401D9966D937D938D939C933F
:102DA000DC971E8E18968C918878883821F4B1E0D3
:102DB000BE8FB093B90E988E8F8A53E7252E56E0BA
:102DC000352E43E8A42E46E0B42EFE013196FE8B4C
:102DD000ED8B0F2EFCEECF2EF8E7DF2EFDEAEF2E67
:102DE000F0E6FF2EF02D00E010E0D401EC91F0E0D1
:102DF000EE0FFF1FEE0FFF1FE80DF91D8185928575
:102E0000A385B485B595A79597958795EF89F88D96
:102E1000818F928FA38FB48F20E130E0002E02C00B
:102E2000220F331F0A94E2F7D40118968C9190E098
:102E300028233923232B09F440C0ED89FE896081C2
:102E40007181828193810E94EF7C2B013C01FE8D78
:102E5000FF2331F0D1016D917D918D919C9105C041
:102E6000F50160817181828193810E94ED7C9B01DB
:102E7000AC01C301B2010E94307F9B01AC01C701CC
:102E8000B6010E941C7C87FD18C0FE8DFF2331F027
:102E9000D1016D917D918D919C9105C0F50160816D
:102EA0007181828193810E94ED7C9B01AC01C30101
:102EB000B2010E94307F6B017C010F5F1F4F2F8991
:102EC000388D2C5F3F4F388F2F8B84E090E0280E99
:102ED000391EA80EB91EAD89BE891496BE8BAD8B66
:102EE0000430110509F081CF60E070E080E89FE3D5
:102EF000F40121AD32AD43AD54AD0E94237C2DE3EE
:102F000030E0820E931ED4016D937D938D939C933C
:102F10001397E3ECFFEF8E0E9F1ED401EC91F0E0CF
:102F2000EE0FFF1FEE0FFF1FEC0FFD1F618172817F
:102F3000838194810E94EF7C9B01AC01C701B601A3
:102F40000E94237C0E94C17CE1E6F0E08E0E9F1E71
:102F5000D4016D937D938D939D934D010E94ED7CE3
:102F600020E030E040E858E40E94307F20E034E286
:102F700044E75BE40E94237C0E94C17CF4016083EF
:102F80007183828393832BE93FEF820E931E84012A
:102F90000F5B1F4F81E590E0880E991ED4012D91A3
:102FA0003D914D915C91EFEAFFEF8E0E9F1ECA019D
:102FB000B9010E94437BA70196010E94307FD40192
:102FC000D9962D913D914D915C91DC970E94307F77
:102FD00020E034E244E75BE40E94237CF801608354
:102FE000718382839383D401D9968D919D910D90A5
:102FF000BC91A02D8A8F9B8FAC8FBD8F60911D07D8
:1030000070911E0780911F079091200720E030E00B
:1030100040E05FE30E94307F2B013C016A8D7B8D95
:103020008C8D9D8DA30192010E941C7C882324F429
:103030004A8C5B8C6C8C7D8CF401F085F98F2F2E83
:103040003324F6FF35C0F40181A992A9A3A9B4A93C
:103050005C016D01E894D7F8609121077091220717
:10306000809123079091240720E030E040E05FE367
:103070000E94307F7B018C01C601B501A801970138
:103080000E945B7E1816A4F4C801B7012A8D3B8DFF
:103090004C8D5D8D0E94307FA60195010E94237C9E
:1030A0005B016C01A30192010E941C7C87FD02C0A0
:1030B00063015201F98DF7FF39C020E72222332442
:1030C000E0914803F0914903232819F16789708D35
:1030D000818D928D20E030E040E05FE30E94307F00
:1030E0002A8D3B8D4C8D5D8D0E94307FD401D5960D
:1030F0002D913D914D915C91D8975F770E94237CF3
:103100007B018C01A60195010E941C7C87FD10C0EB
:103110000DC06789708D818D928D20E030E040E098
:103120005FE30E94307F7B018C0102C08601750144
:10313000C801B7012A8D3B8D4C8D5D8D0E941C7C92
:1031400087FD04C0EA8CFB8C0C8D1D8DEDE4F0E056
:103150008E0E9F1ED401ED92FD920D931C9313973A
:10316000F40112930293F292E2924F0127EB3FEFA8
:10317000820E931EC801B701A80197010E94307FFB
:10318000F401EF5BFF4F20813181428153810E9426
:10319000437B0E949D7FD401D9962D913D914D9105
:1031A0005C91DC970E945B7E882324F0F40181818E
:1031B0008260818325E530E0820E931ED4012D913B
:1031C0003D914D915C9160E074E284EF90E00E944B
:1031D00039801901E4E1F0E08E0E9F1ED4012D9399
:1031E0003C93E7E9FFEF8E0E9F1ED40118964C9199
:1031F000242F30E0C90180779070892B21F047FFA0
:1032000002C043FD0CC0EFE6F0E08E0E9F1ED4011D
:103210001D921C92E1E9FFEF8E0E9F1E69C0F40122
:1032200085A996A9A7A9B0AD2C013D01E89477F82E
:10323000E0914803F0914903C301B20125A136A1F1
:1032400047A150A50E94307F2FE632E143E85AE3C0
:103250000E94307F2091D1023091D2024091D3025E
:103260005091D4020E94307F5B016C012FE630E068
:10327000820E931E20E030E040E857E40E94307F49
:103280007B018C01B10180E090E00E94ED7C9B010C
:10329000AC01C801B7010E94237C0E94C17CD4010B
:1032A0006D937C93E1E9FFEF8E0E9F1E6091AD0E52
:1032B0007091AE0E882777FD8095982F0E94EF7C45
:1032C0009B01AC01C601B5010E945B7E181684F417
:1032D000C601B5010E94BC7C7093AE0E6093AD0E2A
:1032E0004092AF0E5092B00E6092B10E7092B20E3C
:1032F0008091AA0E0E94DD0E25E530E0820E931E1D
:10330000F40180819181A281B3812BEA3FEF820E8B
:10331000931E8F5C9740A040B04018F08F8D88239B
:1033200021F0D40117961C9220C081E0F40187831C
:10333000E081F0E0EE0FFF1FEE0FFF1FE80DF91D1B
:1033400081859285A385B485F40185A396A3A7A35F
:10335000B0A781A392A3A3A3B4A3858F968FA78FB1
:10336000B0A3818F928FA38FB48F8091AA0E8F5FAD
:103370008093AA0E803111F41092AA0EFCA1FF23B3
:1033800031F086E490E09093B80E8093B70E9FB72B
:10339000F8948091AB0E8F5F8093AB0E9FBFA49685
:1033A0000FB6F894DEBF0FBECDBFCF91DF911F9156
:1033B0000F91FF90EF90DF90CF90BF90AF909F90D4
:1033C0008F907F906F905F904F903F902F900895D7
:1033D0002F923F924F925F926F927F928F929F9225
:1033E000AF92BF92CF92DF92EF92FF920F931F9313
:1033F000DF93CF93CDB7DEB7EF970FB6F894DEBF6C
:103400000FBECDBF8EAB6FAB809193068E7F809346
:10341000930604C00E946C390E94B4668091AB0E82
:103420008031C0F78FA960E00E94860E8DA32091A5
:10343000AA0E2DAB422F50E05CAB4BAB6EA96623BE
:1034400071F085E790E0489FF001499FF00D589F8B
:10345000F00D1124E85AF84F80E181830EC085E712
:1034600090E0ABA9BCA9A89FF001A99FF00DB89F5F
:10347000F00D1124E85AF84F118285E790E02BA94E
:103480003CA9289FF001299FF00D389FF00D1124D1
:10349000E85AF84F16823FA9332311F482E086835D
:1034A00085E790E04BA95CA9489FF001499FF00D8A
:1034B000589FF00D1124E85AF84F10868091BA06F3
:1034C0009091BB06A091BC06B091BD06B7FF08C0A5
:1034D0001092BA061092BB061092BC061092BD065E
:1034E0008091BE069091BF06A091C006B091C10622
:1034F000B7FF08C01092BE061092BF061092C00619
:103500001092C1062091E5063091E6064091E7064B
:103510005091E8068091BA069091BB06A091BC0636
:10352000B091BD06281739074A075B0744F420937A
:10353000BA063093BB064093BC065093BD0620915B
:10354000E9063091EA064091EB065091EC06809135
:10355000BE069091BF06A091C006B091C106281783
:1035600039074A075B0744F42093BE063093BF0631
:103570004093C0065093C1062091ED063091EE06AF
:103580004091EF065091F0068091C2069091C306DB
:10359000A091C406B091C506281739074A075B07F2
:1035A00044F42093C2063093C3064093C40650935C
:1035B000C50660911B0770911C077EA76DA73AEAAC
:1035C000232E36E0332E85E790E0ABA9BCA9FC01A1
:1035D000AE9FC001AF9F900DBE9F900D11249C0126
:1035E0002F59384F3AA329A3490144245524AA242A
:1035F000BB24885A984F28E0622E712C680E791EE1
:10360000AC014B5E5F4F5BAF4AAF80E090E06CAFC8
:103610007DAF8EAF9FAF49AED10150962D913D91B8
:103620004D915C9153972FA738AB49AB5AAB8D9115
:103630009D910D90BC91A02D281B390B4A0B5B0B63
:10364000F401208331834283538357FD0DC021E071
:1036500030E0042C02C0220F331F0A94E2F7D3019A
:103660008C91822B8C930CC088279927DC01821BBC
:10367000930BA40BB50BF40180839183A283B383D6
:10368000F3E04F1649F52DA53EA52436310521F16D
:10369000AAADBBAD6D917D918D919C910E94EF7C07
:1036A0007B018C016CAD7DAD8EAD9FAD0E94ED7C3C
:1036B0009B01AC01C801B7010E94307F2AE037EDC1
:1036C00043E25CE30E94307F0E94BC7CEAADFBAD2C
:1036D0006083718382839383D401ED90FD900D917B
:1036E0001C9181E0C82ED12CCC0EDD1ECA0CDB1C37
:1036F000C801B7010E94EF7CF501ED59F94F208117
:103700003181428153810E94307FF6016083718351
:1037100082839383E114F1040105110561F020E136
:1037200030E009AC02C0220F331F0A94E2F7D30144
:103730008C91822B8C93D1012FA538A949A95AA924
:103740002D933D934D935D931D010894411C511C95
:10375000E4E0F0E0AE0EBF1E8E0E9F1EF0E1AF164D
:10376000B10409F058CF609134077091350780910A
:103770003607909137072D853E854F8558890E94E1
:10378000437B60933407709335078093360790939B
:10379000370785E790E02BA93CA9289F1001299FB6
:1037A000300C389F300C112448E557E0240E351EAC
:1037B000D10118969C91892F807F51F4BDA1BB2324
:1037C00009F4DCC21092AB0EEDA9E093AC0ED6C2A8
:1037D0004101F101EF58FF4F1082118212821382D2
:1037E000292F30E0C90180779070892B09F4F2C14C
:1037F0008091450790E0282739272770307013E023
:10380000959587951A95E1F728233923232B29F4D9
:10381000E1C10E946C390E94B4668091AB0E8F307A
:10382000C0F7E091AA0EEF5FE03108F0E0E02E2F44
:1038300030E03CA72BA785E790E0289FA001299FB7
:10384000500D389F500D1124485A584F5CA34BA37C
:10385000DA01F10185E701900D928150E1F785E7EA
:1038600090E06BA97CA9689FF001699FF00D789F9B
:10387000F00D1124E85AF84F2085709145077AA77A
:1038800080E090E0A0E0B0E08D8F9E8FAF8FB8A376
:10389000872F82278770382F80FD09C080E090E055
:1038A000A0E0B0E08EA39FA3A8A7B9A71AC020FFED
:1038B00009C04091390750913A0760913B077091D8
:1038C0003C070BC08091390790913A07A0913B07C4
:1038D000B0913C07AC01BD0170584EA35FA368A72F
:1038E00079A76EA17FA188A599A5698B7A8B8B8B0F
:1038F0009C8B31FD0BC00F2EF0E08F2EF0E09F2E41
:10390000F0E0AF2EF0E0BF2EF02D19C021FF09C06E
:1039100080903D0790903E07A0903F07B0904007F1
:103920000EC080913D0790913E07A0913F07B09156
:1039300040074C015D01B7FAB094B7F8B0948D8A96
:103940009E8AAF8AB88E32FD0BC00F2EF0E04F2E4C
:10395000F0E05F2EF0E06F2EF0E07F2EF02D19C02A
:1039600022FF09C0409041075090420760904307F2
:10397000709044070EC08091410790914207A0913A
:103980004307B09144072C013D0177FA709477F812
:103990007094498E5A8E6B8E7C8E85E790E0ABA931
:1039A000BCA9A89FF001A99FF00DB89FF00D1124AC
:1039B000E85AF84F27702087EE24FF2400E010E03B
:1039C000B8E0CB2ED12CCE0EDF1EE8AEE1E1F0E068
:1039D000EC0FFD1FE00FF11FD801AB53BD4F60810D
:1039E0007181828193812D913D914D915C910E94D5
:1039F000307F0E94BC7C97FF07C0909580957095A2
:103A000061957F4F8F4F9F4FE9A1FAA1608371832A
:103A100082839383611571058105910561F020E131
:103A200030E008AC02C0220F331F0A94E2F7D6013F
:103A30008C91822B8C930894E11CF11C0C5F1F4F1E
:103A4000E9A1FAA13496FAA3E9A30031110509F01E
:103A5000BCCF85E790E02BA93CA9289FF001299FC6
:103A6000F00D389FF00D1124E85AF84F2585368562
:103A700047855089E184F28403851485E216F306B4
:103A8000040715075CF481899289A389B489821798
:103A90009307A407B50714F481E019C085E790E007
:103AA0004BA95CA9489FF001499FF00D589FF00D6C
:103AB0001124E85AF84F81899289A389B4898E1517
:103AC0009F05A007B10714F4108202C082E0808332
:103AD00085E790E06BA97CA9DC016A9FC0016B9F20
:103AE000900D7A9F900D11248C01085A184FD8011F
:103AF000EC91F0E0EE0FFF1FEE0FFF1FE80FF91F34
:103B0000E85AF84F81859285A385B485075A1F4FDF
:103B1000F80180839183A283B383095510406EA17D
:103B20007FA188A599A59B01AC010E94307F6B0104
:103B30007C01C501B401A50194010E94307F9B0165
:103B4000AC01C701B6010E94437B6B017C01D80127
:103B500018968C910F5A1F4F86FF14C0C301B201F3
:103B6000A30192010E94307F9B01AC01C701B60105
:103B70000E94437B0E949D7FF80160837183828352
:103B800093830AC0C701B6010E949D7FD8016D933F
:103B90007D938D939C93139785E790E02BA53CA58F
:103BA000289FF001299FF00D389FF00D1124E85A4D
:103BB000F84F808587703AA53873832B809345072B
:103BC000C101BE016F5E7F4F40E02FA90E944014EB
:103BD0008BA09CA0D4011D962D913D914D915C919F
:103BE00050971996ED90FD900D911C911C97E2163F
:103BF000F30604071507BCF451968D919D910D9025
:103C0000BC91A02D82179307A407B50764F4F401B3
:103C100085899689A789B08D82179307A407B50770
:103C200014F4E1E026C0D40151962D913D914D91BF
:103C30005C9154972E153F05400751076CF455963B
:103C40008D919D910D90BC91A02D8E159F05A00783
:103C5000B10714F4E0E00DC0F40185899689A789C5
:103C6000B08D82179307A407B50714F0E3E001C0F5
:103C7000E2E0D401EC93F0E0EE0FFF1FEE0FFF1F28
:103C8000E80DF91D81859285A385B485E9E5F0E00D
:103C90008E0E9F1EF40180839183A283B38327EA53
:103CA0003FEF820E931ED40118962C91622E77243A
:103CB000C30180779070892B09F444C029813A812F
:103CC0004B815C81ED80FE800F811885CA01B901AE
:103CD0000E94307F5B016C01C801B701A801970108
:103CE0000E94307F9B01AC01C601B5010E94437B5D
:103CF0007B018C0161E5C62ED12CC80CD91C66FE57
:103D000016C029853A854B855C85CA01B9010E9498
:103D1000307F9B01AC01C801B7010E94437B0E9428
:103D20009D7FF60160837183828393831FC0C801E6
:103D3000B7010E949D7FD6016D937D938D939C93D7
:103D4000139714C027FF1AC0E1E5F0E08E0E9F1E06
:103D50008D859E85AF85B889BF77F4018083918377
:103D6000A283B3832FEA3FEF820E931EC401BE01EC
:103D70006F5F7F4F4EA92FA90E944014EF960FB698
:103D8000F894DEBF0FBECDBFCF91DF911F910F9191
:103D9000FF90EF90DF90CF90BF90AF909F908F906B
:103DA0007F906F905F904F903F902F9008952F924B
:103DB0003F924F925F926F927F928F929F92AF92BB
:103DC000BF92CF92DF92EF92FF920F931F93DF93F8
:103DD000CF93CDB7DEB7C154D0400FB6F894DEBF55
:103DE0000FBECDBF4C012B015AAF49AF0BAF1CAF7B
:103DF0002DAF3EAFEFAEDA01AD90BD90CD90DD902E
:103E0000B8AFAFABC601B501F40120813181428169
:103E100053810E94437B6BA77CA78DA79EA7A9AD6A
:103E2000BAAD1496ED90FD900D911C911797C801B5
:103E3000B701F40124813581468157810E94437B7B
:103E40006FA378A789A79AA72091C6063091C706C5
:103E50004091C8065091C9062BAB3CAB4DAB5EAB55
:103E60008091B6069091B706A091B806B091B906B8
:103E70008FA798ABA9ABBAABA601950150582BA35D
:103E80003CA34DA35EA3D801C701B0588F8F98A360
:103E9000A9A3BAA3D2016D917D918D919C912BA57F
:103EA0003CA54DA55EA50E94427B3B014C01F20161
:103EB00064817581868197812FA138A549A55AA56E
:103EC0000E94427B1B012C012091BA063091BB0657
:103ED0004091BC065091BD062B8F3C8F4D8F5E8F5D
:103EE0008091BE069091BF06A091C006B091C10618
:103EF0008F8B988FA98FBA8F6BA17CA18DA19EA16A
:103F0000A20191010E94307F7B018C016F8D78A10D
:103F100089A19AA1A40193010E94307F9B01AC0169
:103F2000C801B7010E94427B5B016C016BA17CA1BF
:103F30008DA19EA1A40193010E94307F7B018C0181
:103F40006F8D78A189A19AA1A20191010E94307F71
:103F50009B01AC01C801B7010E94437B9B01AC01EE
:103F6000C601B5010E94B67B5B016C0120E030E028
:103F700040E050E00E941C7C882354F4C601B50147
:103F80002BED3FE049EC50E40E94437B5B016C0168
:103F90009FAD992351F0C601B5012BED3FE049ECEF
:103FA00050E40E94427B5B016C01C601B5019F7722
:103FB0002BAD3CAD4DAD5EAD0E94307F3B014C0161
:103FC0002FE632E143E85AE30E941C7C87FDE2C100
:103FD000E0901507F0901607009117071091180749
:103FE000C801B70120E030E040E752E40E945B7E68
:103FF00018161CF5C801B7012DE83AE748E85CE35C
:104000000E94307F7B018C0120E030E040E450E4EE
:104010000E945B7E181654F40F2EF0E0EF2EF0E0B5
:10402000FF2EF0E40F2FF0E41F2FF02DC401B30199
:10403000A80197010E94237C02C0C401B3010E9421
:104040002A7D0E94C17C7E8B6D8BAD89BE89AB2B96
:1040500021F4E1E0F0E0FE8BED8B2D893E89B90182
:1040600080E090E00E94ED7C7B018C01C601B501EF
:10407000A80197010E94237C698B7A8B8B8B9C8B88
:104080006BA97CA98DA99EA92FA538A949A95AA9D0
:10409000621B730B840B950B0E94EF7CA8019701A8
:1040A0000E94237C6D877E878F87988B69897A89A8
:1040B0008B899C8920E030E040E05FEB0E94307FFC
:1040C00029893A894B895C890E94307F20E030E061
:1040D00040E85FE30E94437B69877A878B879C87F0
:1040E0006FA578A989A99AA90E94EF7C69837A8330
:1040F0008B839C8341E050E022965FAF4EAF2297C6
:10410000992417C192FC04C00E946C390E94B466C5
:1041100058E159150CF446C06BA17CA18DA19EA15C
:1041200029893A894B895C890E94307F7B018C0107
:104130006F8D78A189A19AA129853A854B855C85E7
:104140000E94307F9B01AC01C801B7010E94437BF4
:104150007B018C016BA17CA18DA19EA129853A8553
:104160004B855C850E94307F5B016C016F8D78A16F
:1041700089A19AA129893A894B895C890E94307F5B
:104180009B01AC01C601B5010E94427B6BA37CA3DD
:104190008DA39EA39394C701D8018F8F98A3A9A341
:1041A000BAA363C02296AEADBFAD2297BD0180E039
:1041B00090E00E94ED7C29893A894B895C890E94B4
:1041C000307F7B018C01C8010E94207C6D837E833F
:1041D0008F839887B701C8010E94937F3B014C01F0
:1041E000E9ADFAADE080F1800281138117FB1095F3
:1041F00017F91095AFA9B8AD2D903D904D905C90FA
:10420000C801B7012D813E814F8158850E94307FC2
:104210005B016C01C201B101A40193010E94307FD6
:104220009B01AC01C601B5010E94437B6BA37CA33B
:104230008DA39EA3C801B701A40193010E94307F02
:104240007B018C01C201B1012D813E814F815885D6
:104250000E94307F9B01AC01C801B7010E94427BE4
:104260006F8F78A389A39AA3992469817A818B811E
:104270009C812D853E854F8558890E94437B6983AB
:104280007A838B839C836BA57CA58DA59EA52BA192
:104290003CA14DA15EA10E94437B2091C5023091BB
:1042A000C6024091C7025091C8020E94307F0E940E
:1042B000BC7C6093BA067093BB068093BC06909357
:1042C000BD066FA178A589A59AA52F8D38A149A112
:1042D0005AA10E94437B2091C9023091CA024091A9
:1042E000CB025091CC020E94307F0E94BC7C609334
:1042F000BE067093BF068093C0069093C106698185
:104300007A818B819C810E94BC7C6093C6067093ED
:10431000C7068093C8069093C90680E061E058D82C
:104320002296EEADFFAD229731962296FFAFEEAF0B
:10433000229722962EAD3FAD22974D895E89241794
:10434000350708F4DFCE8B8D9C8DAD8DBE8D8093AF
:10435000BA069093BB06A093BC06B093BD062F8906
:10436000388D498D5A8D2093BE063093BF064093F9
:10437000C0065093C1068BA99CA9ADA9BEA9809384
:10438000C6069093C706A093C806B093C90680E0FE
:1043900061E01ED8CF5BDF4F0FB6F894DEBF0FBED3
:1043A000CDBFCF91DF911F910F91FF90EF90DF90E4
:1043B000CF90BF90AF909F908F907F906F905F90C5
:1043C0004F903F902F9008952F923F924F925F927F
:1043D0006F927F928F929F92AF92BF92CF92DF9215
:1043E000EF92FF920F931F93DF93CF93CDB7DEB77A
:1043F0002C970FB6F894DEBF0FBECDBF60901507A7
:104400007090160780901707909018076D827E8233
:104410008F8298862090AE063090AF064090B0060E
:104420005090B1066090B2067090B3068090B406CA
:104430009090B50669827A828B829C826090B606E3
:104440007090B7068090B8069090B90669867A8613
:104450008B869C866090AA067090AB068090AC0616
:104460009090AD06660E771E881E991E6092BA0661
:104470007092BB068092BC069092BD06220E331E3F
:10448000441E551E2092BE063092BF064092C006C2
:104490005092C10689819A81AB81BC818E0D9F1D8E
:1044A000A01FB11F8093C2069093C306A093C406B9
:1044B000B093C50669847A848B849C846A0C7B1CC7
:1044C0008C1C9D1C6092C6067092C7068092C8061E
:1044D0009092C9068AA19BA1ACA1BDA180931507AA
:1044E00090931607A0931707B09318078FA160E069
:1044F0000E94E8198D819E81AF81B8858093150750
:1045000090931607A0931707B09318078EA18823DE
:1045100011F00E94CD662C960FB6F894DEBF0FBE48
:10452000CDBFCF91DF911F910F91FF90EF90DF9062
:10453000CF90BF90AF909F908F907F906F905F9043
:104540004F903F902F900895EF92FF920F931F93FB
:10455000E0909B02F0909C0200919D0210919E02BF
:10456000C801B70120E030E040E050E00E941C7C30
:10457000882391F16091950270E080E090E00E94C4
:10458000ED7C20E030E040E251E40E94307FA80161
:1045900097010E94237C6093A4027093A5028093EC
:1045A000A6029093A7026091960270E080E090E0EE
:1045B0000E94ED7C20E030E040E251E40E94307F38
:1045C000A80197010E94237C6093A8027093A9021E
:1045D0008093AA029093AB021F910F91FF90EF90EE
:1045E0000895EF92FF920F931F93CF93DF93EC0107
:1045F000EE8CFF8C08A119A1C801B70120E030E0C2
:1046000040E050E00E941C7C882341F1688D70E0FE
:1046100080E090E00E94ED7C20E030E040E251E458
:104620000E94307FA80197010E94237C6FA378A786
:1046300089A79AA7698D70E080E090E00E94ED7CE8
:1046400020E030E040E251E40E94307FA801970171
:104650000E94237C6BA77CA78DA79EA7DF91CF919B
:104660001F910F91FF90EF900895E091BF02F0919C
:10467000C0022781308541855285B901CA0108955C
:104680004F925F926F927F928F929F92AF92BF9262
:10469000CF92DF92EF92FF920F931F93CF93DF930E
:1046A0007B01853340F4823308F045C08150873068
:1046B00008F00CC10AC0813608F408C1843608F439
:1046C0009CC0843609F002C17EC090E0FC01ED522E
:1046D000FD4F4491440FFC01EE0FFF1FE652FD4FCA
:1046E00025913491F90145905490F90132966590E5
:1046F00074900CEF1FE0061B170B82E019C0E82F27
:10470000F0E0EE0FFF1FE20FF31F859094908F5F94
:10471000E82FF0E08150EE0FFF1FE20FF31FC5916D
:10472000D491081519050CF481C08E5F3E01240157
:10473000841728F342C08E5290E0FC01ED52FD4FE9
:104740004491440FFC01EE0FFF1FE652FD4F2591EF
:104750003491F90145905490F90132966590749026
:1047600082E029C0E82FF0E0EE0FFF1FE20FF31FF9
:10477000859094908F5FE82FF0E08150EE0FFF1F3F
:10478000E20FF31FC591D491E814F9048CF4B3013E
:10479000882777FD8095982F0E94EF7C5B016C0144
:1047A000E418F508B701882777FD8095982F4EC04B
:1047B0008E5F3E0124018417A8F2BE01882777FD91
:1047C0008095982F7AC0B701882777FD8095982F1C
:1047D00024EF31E040E050E00E94068020E030E12C
:1047E00040E050E00E945B80442737FD4095542F05
:1047F000CA01B9010E94EF7C6AC0813619F4EAE46B
:10480000F3E004C0823611F4EEECF3E04080518016
:10481000628073800CEF1FE00E191F0982E0848014
:104820009580C681D78108151905DCF5B301882765
:1048300077FD8095982F0E94EF7C5B016C01B80199
:1048400064197509882777FD8095982F0E94EF7C61
:104850007B018C01C619D709BE01882777FD809599
:10486000982F0E94EF7C9B01AC01C801B7010E9408
:10487000307F7B018C0184189508B401882777FD6F
:104880008095982F0E94EF7C9B01AC01C801B70175
:104890000E94237C9B01AC01C601B5010E94437BB1
:1048A0000EC08E5F34963E012401823409F0B7CFEA
:1048B000BE01882777FD8095982F0E94EF7C20E02D
:1048C00030E040E05EE30E94307F01C003C0FB01A6
:1048D000A82F692F4A2F562FBF01CA01DF91CF9110
:1048E0001F910F91FF90EF90DF90CF90BF90AF900E
:1048F0009F908F907F906F905F904F900895CF9290
:10490000DF92EF92FF920F931F93CF93DF93182FB5
:10491000CB01BA0120E030E040E051E40E94307F5A
:104920000E94BC7CDB01153348F4123308F061C0EF
:10493000812F8150873008F0FEC00AC0113608F47C
:10494000FAC0143608F4B7C0143609F0F4C09FC09A
:1049500090E0FC01ED52FD4FD490DD0CFC01EE0F18
:10496000FF1FE652FD4F65917491FB012591349133
:10497000FB013296E590F49082E034C0E82FF0E03D
:10498000EE0FFF1FE60FF71F459154918F5FE82F41
:10499000F0E08150EE0FFF1FE60FF71F0591149115
:1049A0000A171B07E4F4CCEFDFE0C21BD30B241B78
:1049B000350BB901882777FD8095982F97012A1B21
:1049C0003B0B442737FD4095542F0E940680E01A88
:1049D000F10A9701442737FD4095542F9CC08E5F04
:1049E00078019A018D1550F2CCEFDFE0C41BD50B96
:1049F000A3C01E52812F90E0FC01ED52FD4F449167
:104A0000440FFC01EE0FFF1FE652FD4F259134913C
:104A1000F901C590D490F9013296E590F49082E0C6
:104A200033C0E82FF0E0EE0FFF1FE20FF31FC59138
:104A3000D4918F5FE82FF0E08150EE0FFF1FE20F5F
:104A4000F31F05911491A017B107DCF4B6016C1B9C
:104A50007D0B882777FD8095982F97012A1B3B0BAC
:104A6000442737FD4095542F0E940680E01AF10A32
:104A70009701442737FD4095542F0E945B80E60143
:104A80004CC08E5F78016E01841758F255C0BD018D
:104A9000882777FD8095982F0CE0660F771F881F79
:104AA000991F0A95D1F724EF31E040E050E00E94D1
:104AB0005B80E90141C0113619F4EAE4F3E004C077
:104AC000123611F4EEECF3E0208131810281138182
:104AD00082E044815581E680F780EA16FB0604F502
:104AE000CCEFDFE0C21BD30B241B350BB9018827A9
:104AF00077FD8095982F98012A1B3B0B442737FDA3
:104B00004095542F0E9406800E191F0998014427D2
:104B100037FD4095542F0E945B80C20FD31F0CC0FD
:104B20008E5F349687019A01823499F6CCEFDFE0EC
:104B3000C41BD50B01C001C0CE01DF91CF911F91E5
:104B40000F91FF90EF90DF90CF900895CF92DF927A
:104B5000EF92FF920F931F93CF93DF938091930671
:104B600082FD02C080E040C09DEBC92E92E0D92EAC
:104B7000C0E0D0E0D601ED91FC91E780F0840185A2
:104B80001285C13039F48FE395E06BEC71E00E943F
:104B9000733407C08FE395E061EC71E0AE010E94D1
:104BA000F834C801B7010E94BC7C665F7F4F6B5927
:104BB000714028F08FE395E06CEA71E004C08FE368
:104BC00095E062EA71E00E940A35219682E090E069
:104BD000C80ED91EC230D10569F68FE395E065E7AE
:104BE00071E00E940A3581E0DF91CF911F910F9112
:104BF000FF90EF90DF90CF9008952F923F924F92C9
:104C00005F926F927F928F929F92AF92BF92CF925C
:104C1000DF92EF92FF920F931F93DF93CF9300D019
:104C200000D0CDB7DEB70DEB12E01A8309831C82EA
:104C30008091C3021C81181709F4CAC1A981BA81E5
:104C40000D90BC91A02DBE83AD831296EC9112976E
:104C500011968C91853330F48233C8F481508730BB
:104C600038F409C0813620F0843628F0843679F093
:104C70006FEF7FE013C0F0E0EE0FFF1FE45AFB4F31
:104C8000808191816CEF7FE0681B790B07C0F0E0B9
:104C9000EE0FFF1FE45AFB4F60817181ED81FE81B1
:104CA000748363838181ECDC5B016C01AD81BE8127
:104CB00017966D937D938D939C931A9710919306FD
:104CC00012FD16C020E030E040E251EC0E941C7C56
:104CD00087FD0AC0C601B50120E030E048EC53E48E
:104CE0000E945B7E181624F41460109393062EDF46
:104CF0008091930682FD6CC11B82ED81FE81238130
:104D00003481858196812817390714F4F1E0FB83FB
:104D1000AD81BE819F968C919F97E82FF0E03C96E5
:104D2000EE0FFF1FEE0FFF1FEA0FFB1F1796AD9050
:104D3000BD90CD90DC901A97A082B182C282D382BE
:104D40008F5F83709F968C939F9753968C91539708
:104D5000813009F0DEC01B96ED90FD900D911C9105
:104D60001E97C801B70120E030E040EA51E40E94FC
:104D70001C7C87FDC5C0C801B701A60195010E9432
:104D8000427B3B014C0120E030E040E751E40E94CF
:104D90005B7E181624F4ED81FE8166A1B2C0C401C9
:104DA000B30120E030E040E751EC0E941C7C87FD1D
:104DB000A7C0AD81BE815A962D903D904D905C90DC
:104DC0005D9754966D917D918D919C9157970E941E
:104DD000EF7CA40193010E94437B5B016C01ED8198
:104DE000FE81E3A4F4A405A516A5A80197010E94DD
:104DF0001C7C882384F0AD81BE819796ED90FD9058
:104E00000D911C919A97C601B501A80197010E94C6
:104E10005B7E18161CF4C801B70102C0C601B501BB
:104E20000E94BC7C5B016C01ED81FE81648B758B03
:104E3000868B978BC201B101A40193010E94307F40
:104E40007B018C01C601B5010E94EF7CAD81BE8162
:104E50005E962D913D914D915C9191970E94307F8E
:104E60002DEC3CEC4CEC5DE30E94307F9B01AC01EF
:104E7000C801B7010E94437B7B018C01AD81BE81DB
:104E80009F96EC919F97F0E03C96EE0FFF1FEE0F80
:104E9000FF1FEA0FFB1F608171818281938117964A
:104EA0002D913D914D915C911A970E94427BED812D
:104EB000FE8122A133A144A155A10E94307F2FED94
:104EC0003FE445E550E40E94307F0E94BC7C0E9494
:104ED000EF7C9B01AC01C801B7010E94437B0E949B
:104EE000BC7C9B01AC0177FD0BC0AD81BE81969669
:104EF0008C9190E0B901821793071CF4BC0101C0AA
:104F000060E0AD81BE81EC91F0E0ED54F14F608343
:104F10003AC0823059F50E947A789B01AC01ED814C
:104F2000FE8187859089A189B28979018A01E81A71
:104F3000F90A0A0B1B0BD801C70189589341A040FD
:104F4000B04008F1E0811B81112311F480E001C021
:104F50008FEFF0E0ED54F14F8083AD81BE811F965D
:104F60002D933D934D935C9352970DC0AD81BE81BF
:104F7000EC91BB81BB2311F480E001C08FEFF0E026
:104F8000ED54F14F8083ED81FE81678170858185CD
:104F9000928520E030E040E753E40E945B7E1816E3
:104FA0003CF4AD81BE81EC91F0E0ED54F14F108204
:104FB00080914803909149038996ED81FE81E8171D
:104FC000F90731F4FB81FF2311F02F9A01C02F98CC
:104FD0000C810F5F0C8329813A812E5F3F4F3A830A
:104FE0002983023009F024CE8091930682FF17C0F6
:104FF000E091BD02F091BE02E081F0E0ED54F14F8E
:105000001082E091BF02F091C002E081F0E0ED5427
:10501000F14F1082809111038860809311032696CE
:105020000FB6F894DEBF0FBECDBFCF91DF911F91B9
:105030000F91FF90EF90DF90CF90BF90AF909F9037
:105040008F907F906F905F904F903F902F9008953A
:10505000CF92DF92EF92FF920F930E947A789B019A
:10506000AC017FE3C72E75E0D72EC6016CED71E071
:105070000E94B338E091C102F0E0EE0FFF1FE3544D
:10508000FD4FE080F180F701278130854185528511
:10509000C6016AED71E002E00E94903BF7012385B2
:1050A000348545855685C60168ED71E000E00E94B3
:1050B000903BF7018081E3EBFEE0E80FF11D4081BA
:1050C000C60166ED71E050E00E942A360F91FF9014
:1050D000EF90DF90CF900895482F8FE395E065E83B
:1050E00073E050E00C942A36DF92EF92FF920F9318
:1050F0001F93D62EE82EFF240FE315E0C80165EDBF
:1051000073E0A7010E94F834C8016AEB73E04D2DEB
:1051100050E00E942A368FE690E0E89EF001E99E7A
:10512000F00DF89EF00D1124E25FFD4FD2A61F9105
:105130000F91FF90EF90DF900895EF92FF920F9301
:105140001F937B018C0120E030E040EF52E40E948D
:105150005B7E1816CCF48FE395E068E473E048E7D3
:1051600050E00E942A368FE395E063EF72E00E94E0
:105170000A350F2EF0E0EF2EF0E0FF2EF0EF0F2FAC
:10518000F2E41F2FF02D14C0C801B70120E030E079
:1051900040E050E00E941C7C882354F40F2EF0E085
:1051A000EF2EF0E0FF2EF0E00F2FF0E01F2FF02D9C
:1051B000609188027091890280918A0290918B029D
:1051C000A80197010E941C7C882301F1E0928802CB
:1051D000F092890200938A0210938B0280917E02E2
:1051E000B801A7018CDB9093830280938202209107
:1051F00088023091890240918A0250918B028FE39C
:1052000095E068EE72E000E00E94753B1F910F91FF
:10521000FF90EF9008952F923F924F925F926F927E
:105220007F928F929F92AF92BF92CF92DF92EF9236
:10523000FF920F931F93DF93CF93CDB7DEB7A8975D
:105240000FB6F894DEBF0FBECDBF6F8F78A389A3D2
:105250009AA35CA34BA3FA01EE0FFF1FE354FD4F8B
:105260002081318138A72FA30E947A786D8B7E8BA5
:105270008F8B988FAFA1B8A596968C9190E095955D
:1052800087959C01442737FD4095542F29873A87FD
:105290004B875C878FE395E060EC72E00E940A35F3
:1052A000E091BD02F091BE021682158280E090E08E
:1052B000A0E0B0E083879487A587B687E081F0E01F
:1052C000ED54F14F1082E091BF02F091C0021682BE
:1052D000158283879487A587B687E081F0E0ED5437
:1052E000F14F10823BA13093C302AFA1B8A5EC915E
:1052F000F0E0ED54F14F96968C9180832D893E8994
:105300004F89588D298B3A8B4B8B5C8B79018A01A5
:1053100049855A856B857C854D835E836F8378874D
:105320001A8E198E8824839460E070E080EA91E4FC
:1053300069837A838B839C835B016C01AFA1B8A5E1
:105340001296EC91129711968C91853330F482333A
:10535000C8F48150873038F409C0813620F0843693
:1053600028F0843679F06FEF7FE013C0F0E0EE0FA5
:10537000FF1FE45AFB4F808191816CEF7FE0681B37
:10538000790B07C0F0E0EE0FFF1FE45AFB4F60817E
:105390007181EFA1F8A574836383818171D9362E61
:1053A000272E8DA39EA3862F922DADA1BEA1EFA186
:1053B000F8A587839087A187B2870E947A782B010E
:1053C0003C0169817A818B819C81232D322D4DA1F5
:1053D0005EA10E945B7E181644F0832D922DADA134
:1053E000BEA189839A83AB83BC83C601B501232DFB
:1053F000322D4DA15EA10E941C7C87FD06C0832D2D
:10540000922DADA1BEA15C016D01882009F443C0BD
:10541000632D722D8DA19EA12F8D38A149A15AA176
:105420000E945B7E18160CF0A3C1A30192012E19F5
:105430003F09400B510B6BA17CA1161617062CF0EF
:1054400084EC99E0A0E0B0E004C08CED95E0A0E031
:10545000B0E082179307A407B50708F089C1AFA190
:10546000B8A5EC916E2F70E06D54714F8985BD81A8
:105470008B1BFB0180832D873E874F87588B498A82
:105480005A8A6B8A7C8A2F8D38A149A15AA1298317
:105490003A834B835C83632D722D8DA19EA12F8D4A
:1054A00038A149A15AA10E941C7C88230CF05FC13D
:1054B000A301920169897A898B899C89261B370B04
:1054C000480B590B8BA19CA1181619062CF488EBDC
:1054D0009BE0A0E0B0E004C088E893E1A0E0B0E089
:1054E00082179307A407B50708F041C1A98DBA8DAB
:1054F000AB2B09F421C16D857E858F859889620F5C
:10550000731F841F951F6B8F7C8F8D8F9E8F6D8572
:105510007E858F859889621B730B840B950B2D817B
:105520003E814F8158850E9406802B8D3C8D4D8D8C
:105530005E8D0E945B8089859A85AB85BC85280F2E
:10554000391F4A1F5B1F24313105410551054CF4B9
:1055500024E130E040E050E029873A874B875C87C0
:1055600018C0AFA1B8A596968C9190E044977C01A5
:105570000027F7FC0095102F29873A874B875C8717
:10558000E216F3060407150724F4E986FA860B876A
:105590001C87EFA1F8A526A1822F869590E0A0E0B8
:1055A000B0E049855A856B857C8584179507A607E9
:1055B000B7072CF04D835E836F83788714C0822FEA
:1055C00090E001979C01442737FD4095542F698551
:1055D0007A858B859C85261B370B480B590B2D83B1
:1055E0003E834F8358878FE395E068EB72E04985EF
:1055F0005A850E94F8348FE395E063EB72E04D81A9
:105600005E810E94F8348FE395E06CEA72E0A601B7
:10561000950102E00E94903B8FE395E065EA72E01D
:1056200029813A814B815C810E94753B898D9A8DDD
:1056300003970CF481C06D817E818F8198850E94D3
:10564000EF7C20E030E040E850E40E94307F7B01B6
:105650008C0169817A818B819C81A60195010E94D0
:10566000427B20ED3FE049E450E40E94307F9B0103
:10567000AC01C801B7010E94237C6B017C016B8DDA
:105680007C8D8D8D9E8D0E94EF7C20E030E04AE77E
:1056900054E40E94237C4B015C018FE395E06FE9A9
:1056A00072E0A701960102E00E94903B8FE395E033
:1056B00069E972E0A50194010E94753BC701B6013A
:1056C0002AE939E949E15FE30E94307F6B017C01FF
:1056D0008FE395E06CE872E00E940A358FE395E075
:1056E00066E872E0A70196010E94753BC701B6010A
:1056F000A70196010E94437BA50194010E94237C8F
:105700009B01AC018FE395E060E872E00E94753B7D
:10571000C701B601A50194010E94307F20E030E06E
:1057200040E05EE30E94307F9B01AC018FE395E097
:105730006AE772E00E94753BAFA1B8A5EC912E2FED
:1057400030E02D54314F8D81B9858B0FF901808365
:10575000298D3A8D2F5F3F4F3A8F298F8301720138
:10576000AF8CB8A0C9A0DAA08824839401C0882493
:105770006F8D78A189A19AA120E030E040EA51E440
:105780000E94437B9B01AC01632D722D8DA19EA1D4
:105790000E945B7E18162CF48FE395E061E572E0C1
:1057A0003CC0D301C2014D895E896F89788D841B0D
:1057B000950BA60BB70B895E9340A040B04030F02C
:1057C0000E9480664D8A5E8A6F8A788E440C551CD2
:1057D000661C771C69897A898B899C89461A570AC5
:1057E000680A790A4E185F08600A710A71E847165C
:1057F0007FE4570672E1670670E0770628F08FE3D2
:1058000095E064E372E009C0898D9A8D06970CF4E7
:1058100095CD8FE395E063EE71E00E940A35E0914B
:10582000BD02F091BE021682158280E090E0A0E0F9
:10583000B0E083879487A587B687E081F0E0ED54D8
:10584000F14F1082E091BF02F091C00216821582E2
:1058500083879487A587B687E081F0E0ED54F14F08
:1058600010828FEF8093C302A8960FB6F894DEBF24
:105870000FBECDBFCF91DF911F910F91FF90EF90A1
:10588000DF90CF90BF90AF909F908F907F906F9060
:105890005F904F903F902F900895E0914803F091D2
:1058A000490360E08685882309F461E085850C94CE
:1058B0002277AF92BF92CF92DF92EF92FF920F9337
:1058C0001F93CF93DF936B017C01B42EE091BD0257
:1058D000F091BE02638574858585968520E030E071
:1058E00040E751E40E945B7E181614F4AA2402C01B
:1058F000AA24A394C701B60120E030E040E753E4B6
:105900000E945B7E18165CF40F2EF0E0CF2EF0E0C4
:10591000DF2EF0E7EF2EF3E4FF2EF02D14C0C701C9
:10592000B60120E030E040E050E00E941C7C88237B
:1059300054F40F2EF0E0CF2EF0E0DF2EF0E0EF2E4B
:10594000F0E0FF2EF02D0B2D10E0F801EE0FFF1F01
:10595000E354FD4FC081D181C701B6012B853C8541
:105960004D855E850E941C7C882309F47EC0898158
:10597000B701A6010E947F249E838D83CB86DC869F
:10598000ED86FE86C701B60120E030E048E452E42F
:105990000E941C7C88236CF48FE690E0089FF00145
:1059A000099FF00D189FF00D1124E458FD4F10824F
:1059B0000FC08FE690E0089FF001099FF00D189F3F
:1059C000F00D1124E25FFD4FE359FF4F8191808379
:1059D0006B2D70E080E090E00E94ED7C9B01AC01BB
:1059E0008FE395E06AE773E000E00E94903B8FE36D
:1059F00095E068E773E0A70196010E94753BE0918E
:105A00004803F09149038081B81671F4C701B601CB
:105A100020E030E040E050E00E941C7C882324F429
:105A200010929D061092B90EE091BD02F091BE0257
:105A3000638574858585968520E030E040E751E4F4
:105A40000E945B7E18162CF0AA2079F40E94BB44B9
:105A50000CC0AA2051F00E947A78609330077093AE
:105A600031078093320790933307DF91CF911F91D5
:105A70000F91FF90EF90DF90CF90BF90AF9008957F
:105A80002F923F924F925F926F927F928F929F924E
:105A9000AF92BF92CF92DF92EF92FF920F931F933C
:105AA000DF93CF93CDB7DEB72E970FB6F894DEBF56
:105AB0000FBECDBF20914803309149038091B606B7
:105AC0009091B706A091B806B091B906F901838FFD
:105AD000948FA58FB68FD90111968D919D910D90C0
